{
  "_format": "hh-sol-artifact-1",
  "contractName": "CampaignManager",
  "sourceName": "contracts/CampaignManager.sol",
  "abi": [
    {
      "inputs": [
        {
          "internalType": "address",
          "name": "_registryAddress",
          "type": "address"
        }
      ],
      "stateMutability": "nonpayable",
      "type": "constructor"
    },
    {
      "inputs": [],
      "name": "AccessControlBadConfirmation",
      "type": "error"
    },
    {
      "inputs": [
        {
          "internalType": "address",
          "name": "account",
          "type": "address"
        },
        {
          "internalType": "bytes32",
          "name": "neededRole",
          "type": "bytes32"
        }
      ],
      "name": "AccessControlUnauthorizedAccount",
      "type": "error"
    },
    {
      "inputs": [],
      "name": "CampaignEnded",
      "type": "error"
    },
    {
      "inputs": [],
      "name": "CampaignNotExist",
      "type": "error"
    },
    {
      "inputs": [],
      "name": "CampaignNotVerified",
      "type": "error"
    },
    {
      "inputs": [],
      "name": "EmptyName",
      "type": "error"
    },
    {
      "inputs": [],
      "name": "FeeTransferFailed",
      "type": "error"
    },
    {
      "inputs": [],
      "name": "InactiveCampaign",
      "type": "error"
    },
    {
      "inputs": [],
      "name": "InsufficientFee",
      "type": "error"
    },
    {
      "inputs": [],
      "name": "InsufficientFunds",
      "type": "error"
    },
    {
      "inputs": [],
      "name": "InvalidDuration",
      "type": "error"
    },
    {
      "inputs": [],
      "name": "InvalidGoal",
      "type": "error"
    },
    {
      "inputs": [],
      "name": "InvalidRegistry",
      "type": "error"
    },
    {
      "inputs": [],
      "name": "NotOwner",
      "type": "error"
    },
    {
      "inputs": [],
      "name": "NotVerifier",
      "type": "error"
    },
    {
      "inputs": [],
      "name": "PlatformPaused",
      "type": "error"
    },
    {
      "inputs": [],
      "name": "ReentrancyGuardReentrantCall",
      "type": "error"
    },
    {
      "inputs": [],
      "name": "WithdrawFailed",
      "type": "error"
    },
    {
      "inputs": [],
      "name": "ZeroAmount",
      "type": "error"
    },
    {
      "anonymous": false,
      "inputs": [
        {
          "indexed": true,
          "internalType": "uint256",
          "name": "campaignId",
          "type": "uint256"
        },
        {
          "indexed": true,
          "internalType": "address",
          "name": "owner",
          "type": "address"
        },
        {
          "indexed": false,
          "internalType": "string",
          "name": "name",
          "type": "string"
        },
        {
          "indexed": false,
          "internalType": "uint256",
          "name": "goal",
          "type": "uint256"
        },
        {
          "indexed": false,
          "internalType": "uint256",
          "name": "duration",
          "type": "uint256"
        }
      ],
      "name": "CampaignCreated",
      "type": "event"
    },
    {
      "anonymous": false,
      "inputs": [
        {
          "indexed": true,
          "internalType": "uint256",
          "name": "campaignId",
          "type": "uint256"
        },
        {
          "indexed": false,
          "internalType": "bool",
          "name": "featured",
          "type": "bool"
        }
      ],
      "name": "CampaignFeatured",
      "type": "event"
    },
    {
      "anonymous": false,
      "inputs": [
        {
          "indexed": true,
          "internalType": "uint256",
          "name": "campaignId",
          "type": "uint256"
        },
        {
          "indexed": false,
          "internalType": "bool",
          "name": "isActive",
          "type": "bool"
        }
      ],
      "name": "CampaignStatusChanged",
      "type": "event"
    },
    {
      "anonymous": false,
      "inputs": [
        {
          "indexed": true,
          "internalType": "uint256",
          "name": "campaignId",
          "type": "uint256"
        },
        {
          "indexed": false,
          "internalType": "bool",
          "name": "verified",
          "type": "bool"
        }
      ],
      "name": "CampaignVerified",
      "type": "event"
    },
    {
      "anonymous": false,
      "inputs": [
        {
          "indexed": true,
          "internalType": "uint256",
          "name": "campaignId",
          "type": "uint256"
        },
        {
          "indexed": true,
          "internalType": "address",
          "name": "donor",
          "type": "address"
        },
        {
          "indexed": false,
          "internalType": "uint256",
          "name": "amount",
          "type": "uint256"
        },
        {
          "indexed": false,
          "internalType": "uint256",
          "name": "timestamp",
          "type": "uint256"
        },
        {
          "indexed": false,
          "internalType": "string",
          "name": "nftId",
          "type": "string"
        }
      ],
      "name": "DonationReceived",
      "type": "event"
    },
    {
      "anonymous": false,
      "inputs": [
        {
          "indexed": true,
          "internalType": "uint256",
          "name": "campaignId",
          "type": "uint256"
        },
        {
          "indexed": true,
          "internalType": "address",
          "name": "recipient",
          "type": "address"
        },
        {
          "indexed": false,
          "internalType": "uint256",
          "name": "amount",
          "type": "uint256"
        }
      ],
      "name": "FundsWithdrawn",
      "type": "event"
    },
    {
      "anonymous": false,
      "inputs": [
        {
          "indexed": true,
          "internalType": "bytes32",
          "name": "role",
          "type": "bytes32"
        },
        {
          "indexed": true,
          "internalType": "bytes32",
          "name": "previousAdminRole",
          "type": "bytes32"
        },
        {
          "indexed": true,
          "internalType": "bytes32",
          "name": "newAdminRole",
          "type": "bytes32"
        }
      ],
      "name": "RoleAdminChanged",
      "type": "event"
    },
    {
      "anonymous": false,
      "inputs": [
        {
          "indexed": true,
          "internalType": "bytes32",
          "name": "role",
          "type": "bytes32"
        },
        {
          "indexed": true,
          "internalType": "address",
          "name": "account",
          "type": "address"
        },
        {
          "indexed": true,
          "internalType": "address",
          "name": "sender",
          "type": "address"
        }
      ],
      "name": "RoleGranted",
      "type": "event"
    },
    {
      "anonymous": false,
      "inputs": [
        {
          "indexed": true,
          "internalType": "bytes32",
          "name": "role",
          "type": "bytes32"
        },
        {
          "indexed": true,
          "internalType": "address",
          "name": "account",
          "type": "address"
        },
        {
          "indexed": true,
          "internalType": "address",
          "name": "sender",
          "type": "address"
        }
      ],
      "name": "RoleRevoked",
      "type": "event"
    },
    {
      "inputs": [],
      "name": "DEFAULT_ADMIN_ROLE",
      "outputs": [
        {
          "internalType": "bytes32",
          "name": "",
          "type": "bytes32"
        }
      ],
      "stateMutability": "view",
      "type": "function"
    },
    {
      "inputs": [
        {
          "internalType": "string",
          "name": "_name",
          "type": "string"
        },
        {
          "internalType": "string",
          "name": "_description",
          "type": "string"
        },
        {
          "internalType": "string",
          "name": "_story",
          "type": "string"
        },
        {
          "internalType": "uint256",
          "name": "_goal",
          "type": "uint256"
        },
        {
          "internalType": "uint256",
          "name": "_duration",
          "type": "uint256"
        },
        {
          "internalType": "string[]",
          "name": "_impacts",
          "type": "string[]"
        },
        {
          "internalType": "string",
          "name": "_imageURI",
          "type": "string"
        }
      ],
      "name": "createCampaign",
      "outputs": [
        {
          "internalType": "uint256",
          "name": "",
          "type": "uint256"
        }
      ],
      "stateMutability": "nonpayable",
      "type": "function"
    },
    {
      "inputs": [
        {
          "internalType": "uint256",
          "name": "_campaignId",
          "type": "uint256"
        },
        {
          "internalType": "string",
          "name": "_nftId",
          "type": "string"
        }
      ],
      "name": "donate",
      "outputs": [],
      "stateMutability": "payable",
      "type": "function"
    },
    {
      "inputs": [],
      "name": "getAllCampaigns",
      "outputs": [
        {
          "internalType": "uint256[]",
          "name": "",
          "type": "uint256[]"
        }
      ],
      "stateMutability": "view",
      "type": "function"
    },
    {
      "inputs": [
        {
          "internalType": "uint256",
          "name": "_campaignId",
          "type": "uint256"
        }
      ],
      "name": "getCampaignInfo",
      "outputs": [
        {
          "components": [
            {
              "internalType": "uint256",
              "name": "id",
              "type": "uint256"
            },
            {
              "internalType": "address",
              "name": "owner",
              "type": "address"
            },
            {
              "internalType": "string",
              "name": "name",
              "type": "string"
            },
            {
              "internalType": "string",
              "name": "description",
              "type": "string"
            },
            {
              "internalType": "string",
              "name": "story",
              "type": "string"
            },
            {
              "internalType": "uint256",
              "name": "goal",
              "type": "uint256"
            },
            {
              "internalType": "uint256",
              "name": "raisedAmount",
              "type": "uint256"
            },
            {
              "internalType": "uint256",
              "name": "createdAt",
              "type": "uint256"
            },
            {
              "internalType": "uint256",
              "name": "duration",
              "type": "uint256"
            },
            {
              "internalType": "string[]",
              "name": "impacts",
              "type": "string[]"
            },
            {
              "internalType": "string",
              "name": "imageURI",
              "type": "string"
            },
            {
              "internalType": "bool",
              "name": "isActive",
              "type": "bool"
            },
            {
              "internalType": "bool",
              "name": "verified",
              "type": "bool"
            },
            {
              "internalType": "bool",
              "name": "featured",
              "type": "bool"
            }
          ],
          "internalType": "struct CampaignManager.CampaignInfo",
          "name": "",
          "type": "tuple"
        }
      ],
      "stateMutability": "view",
      "type": "function"
    },
    {
      "inputs": [
        {
          "internalType": "address",
          "name": "_owner",
          "type": "address"
        }
      ],
      "name": "getCampaignsByOwner",
      "outputs": [
        {
          "internalType": "uint256[]",
          "name": "",
          "type": "uint256[]"
        }
      ],
      "stateMutability": "view",
      "type": "function"
    },
    {
      "inputs": [],
      "name": "getFeaturedCampaigns",
      "outputs": [
        {
          "internalType": "uint256[]",
          "name": "",
          "type": "uint256[]"
        }
      ],
      "stateMutability": "view",
      "type": "function"
    },
    {
      "inputs": [
        {
          "internalType": "bytes32",
          "name": "role",
          "type": "bytes32"
        }
      ],
      "name": "getRoleAdmin",
      "outputs": [
        {
          "internalType": "bytes32",
          "name": "",
          "type": "bytes32"
        }
      ],
      "stateMutability": "view",
      "type": "function"
    },
    {
      "inputs": [],
      "name": "getVerifiedCampaigns",
      "outputs": [
        {
          "internalType": "uint256[]",
          "name": "",
          "type": "uint256[]"
        }
      ],
      "stateMutability": "view",
      "type": "function"
    },
    {
      "inputs": [
        {
          "internalType": "uint256",
          "name": "_campaignId",
          "type": "uint256"
        }
      ],
      "name": "goalReached",
      "outputs": [
        {
          "internalType": "bool",
          "name": "",
          "type": "bool"
        }
      ],
      "stateMutability": "view",
      "type": "function"
    },
    {
      "inputs": [
        {
          "internalType": "bytes32",
          "name": "role",
          "type": "bytes32"
        },
        {
          "internalType": "address",
          "name": "account",
          "type": "address"
        }
      ],
      "name": "grantRole",
      "outputs": [],
      "stateMutability": "nonpayable",
      "type": "function"
    },
    {
      "inputs": [
        {
          "internalType": "uint256",
          "name": "_campaignId",
          "type": "uint256"
        }
      ],
      "name": "hasEnded",
      "outputs": [
        {
          "internalType": "bool",
          "name": "",
          "type": "bool"
        }
      ],
      "stateMutability": "view",
      "type": "function"
    },
    {
      "inputs": [
        {
          "internalType": "bytes32",
          "name": "role",
          "type": "bytes32"
        },
        {
          "internalType": "address",
          "name": "account",
          "type": "address"
        }
      ],
      "name": "hasRole",
      "outputs": [
        {
          "internalType": "bool",
          "name": "",
          "type": "bool"
        }
      ],
      "stateMutability": "view",
      "type": "function"
    },
    {
      "inputs": [],
      "name": "registry",
      "outputs": [
        {
          "internalType": "contract BitGiveRegistry",
          "name": "",
          "type": "address"
        }
      ],
      "stateMutability": "view",
      "type": "function"
    },
    {
      "inputs": [
        {
          "internalType": "bytes32",
          "name": "role",
          "type": "bytes32"
        },
        {
          "internalType": "address",
          "name": "callerConfirmation",
          "type": "address"
        }
      ],
      "name": "renounceRole",
      "outputs": [],
      "stateMutability": "nonpayable",
      "type": "function"
    },
    {
      "inputs": [
        {
          "internalType": "bytes32",
          "name": "role",
          "type": "bytes32"
        },
        {
          "internalType": "address",
          "name": "account",
          "type": "address"
        }
      ],
      "name": "revokeRole",
      "outputs": [],
      "stateMutability": "nonpayable",
      "type": "function"
    },
    {
      "inputs": [
        {
          "internalType": "uint256",
          "name": "_campaignId",
          "type": "uint256"
        },
        {
          "internalType": "bool",
          "name": "_isActive",
          "type": "bool"
        }
      ],
      "name": "setActive",
      "outputs": [],
      "stateMutability": "nonpayable",
      "type": "function"
    },
    {
      "inputs": [
        {
          "internalType": "uint256",
          "name": "_campaignId",
          "type": "uint256"
        },
        {
          "internalType": "bool",
          "name": "_featured",
          "type": "bool"
        }
      ],
      "name": "setFeaturedCampaign",
      "outputs": [],
      "stateMutability": "nonpayable",
      "type": "function"
    },
    {
      "inputs": [
        {
          "internalType": "bytes4",
          "name": "interfaceId",
          "type": "bytes4"
        }
      ],
      "name": "supportsInterface",
      "outputs": [
        {
          "internalType": "bool",
          "name": "",
          "type": "bool"
        }
      ],
      "stateMutability": "view",
      "type": "function"
    },
    {
      "inputs": [
        {
          "internalType": "uint256",
          "name": "_campaignId",
          "type": "uint256"
        },
        {
          "internalType": "bool",
          "name": "_verified",
          "type": "bool"
        }
      ],
      "name": "verifyCampaign",
      "outputs": [],
      "stateMutability": "nonpayable",
      "type": "function"
    },
    {
      "inputs": [
        {
          "internalType": "uint256",
          "name": "_campaignId",
          "type": "uint256"
        },
        {
          "internalType": "uint256",
          "name": "_amount",
          "type": "uint256"
        }
      ],
      "name": "withdrawFunds",
      "outputs": [],
      "stateMutability": "nonpayable",
      "type": "function"
    },
    {
      "stateMutability": "payable",
      "type": "receive"
    }
  ],
  "bytecode": "0x60a06040523480156200001157600080fd5b5060405162003c7838038062003c788339818101604052810190620000379190620002d5565b60018081905550600073ffffffffffffffffffffffffffffffffffffffff168173ffffffffffffffffffffffffffffffffffffffff1603620000a5576040517f11a1e69700000000000000000000000000000000000000000000000000000000815260040160405180910390fd5b8073ffffffffffffffffffffffffffffffffffffffff1660808173ffffffffffffffffffffffffffffffffffffffff1681525050620000ee6000801b33620000f660201b60201c565b505062000307565b60006200010a8383620001f960201b60201c565b620001ee57600160008085815260200190815260200160002060000160008473ffffffffffffffffffffffffffffffffffffffff1673ffffffffffffffffffffffffffffffffffffffff16815260200190815260200160002060006101000a81548160ff0219169083151502179055506200018a6200026360201b60201c565b73ffffffffffffffffffffffffffffffffffffffff168273ffffffffffffffffffffffffffffffffffffffff16847f2f8788117e7eff1d82e926ec794901d17c78024a50270940304540a733656f0d60405160405180910390a460019050620001f3565b600090505b92915050565b600080600084815260200190815260200160002060000160008373ffffffffffffffffffffffffffffffffffffffff1673ffffffffffffffffffffffffffffffffffffffff16815260200190815260200160002060009054906101000a900460ff16905092915050565b600033905090565b600080fd5b600073ffffffffffffffffffffffffffffffffffffffff82169050919050565b60006200029d8262000270565b9050919050565b620002af8162000290565b8114620002bb57600080fd5b50565b600081519050620002cf81620002a4565b92915050565b600060208284031215620002ee57620002ed6200026b565b5b6000620002fe84828501620002be565b91505092915050565b6080516139396200033f60003960008181610c9d01528181611faf015281816120730152818161239401526124bf01526139396000f3fe60806040526004361061012e5760003560e01c806386cdf604116100ab578063c36572d61161006f578063c36572d614610416578063cc62236f14610453578063d547741f1461047c578063e38e2b82146104a5578063e5253105146104e2578063e60a955d1461050b57610135565b806386cdf6041461032a5780638d59d1f1146103555780638df910641461037157806391d14854146103ae578063a217fddf146103eb57610135565b806336568abe116100f257806336568abe1461023357806349cf77c21461025c57806351bdebb914610285578063729c521c146102c25780637b103999146102ff57610135565b806301ffc9a71461013a57806311ab195a14610177578063248a9ca3146101a25780632eb32f74146101df5780632f2ff15d1461020a57610135565b3661013557005b600080fd5b34801561014657600080fd5b50610161600480360381019061015c9190612832565b610534565b60405161016e919061287a565b60405180910390f35b34801561018357600080fd5b5061018c6105ae565b604051610199919061295d565b60405180910390f35b3480156101ae57600080fd5b506101c960048036038101906101c491906129b5565b610606565b6040516101d691906129f1565b60405180910390f35b3480156101eb57600080fd5b506101f4610625565b604051610201919061295d565b60405180910390f35b34801561021657600080fd5b50610231600480360381019061022c9190612a6a565b61067d565b005b34801561023f57600080fd5b5061025a60048036038101906102559190612a6a565b61069f565b005b34801561026857600080fd5b50610283600480360381019061027e9190612b02565b61071a565b005b34801561029157600080fd5b506102ac60048036038101906102a79190612b42565b6107dc565b6040516102b9919061295d565b60405180910390f35b3480156102ce57600080fd5b506102e960048036038101906102e49190612b6f565b610873565b6040516102f6919061287a565b60405180910390f35b34801561030b57600080fd5b50610314610c9b565b6040516103219190612bfb565b60405180910390f35b34801561033657600080fd5b5061033f610cbf565b60405161034c919061295d565b60405180910390f35b61036f600480360381019061036a9190612d5c565b610d56565b005b34801561037d57600080fd5b5061039860048036038101906103939190612e9e565b610e29565b6040516103a59190612fdb565b60405180910390f35b3480156103ba57600080fd5b506103d560048036038101906103d09190612a6a565b6111c9565b6040516103e2919061287a565b60405180910390f35b3480156103f757600080fd5b50610400611233565b60405161040d91906129f1565b60405180910390f35b34801561042257600080fd5b5061043d60048036038101906104389190612b6f565b61123a565b60405161044a919061287a565b60405180910390f35b34801561045f57600080fd5b5061047a60048036038101906104759190612b02565b61167c565b005b34801561048857600080fd5b506104a3600480360381019061049e9190612a6a565b6116f6565b005b3480156104b157600080fd5b506104cc60048036038101906104c79190612b6f565b611718565b6040516104d9919061329f565b60405180910390f35b3480156104ee57600080fd5b50610509600480360381019061050491906132c1565b611b36565b005b34801561051757600080fd5b50610532600480360381019061052d9190612b02565b611cd6565b005b60007f7965db0b000000000000000000000000000000000000000000000000000000007bffffffffffffffffffffffffffffffffffffffffffffffffffffffff1916827bffffffffffffffffffffffffffffffffffffffffffffffffffffffff191614806105a757506105a682611d44565b5b9050919050565b606060058054806020026020016040519081016040528092919081815260200182805480156105fc57602002820191906000526020600020905b8154815260200190600101908083116105e8575b5050505050905090565b6000806000838152602001908152602001600020600101549050919050565b6060600680548060200260200160405190810160405280929190818152602001828054801561067357602002820191906000526020600020905b81548152602001906001019080831161065f575b5050505050905090565b61068682610606565b61068f81611dae565b6106998383611dc2565b50505050565b6106a7611eb3565b73ffffffffffffffffffffffffffffffffffffffff168173ffffffffffffffffffffffffffffffffffffffff161461070b576040517f6697b23200000000000000000000000000000000000000000000000000000000815260040160405180910390fd5b6107158282611ebb565b505050565b610722611fad565b600061072d83612168565b905080600b0160019054906101000a900460ff16610777576040517f37cc7d7400000000000000000000000000000000000000000000000000000000815260040160405180910390fd5b8181600b0160026101000a81548160ff02191690831515021790555061079f826005856121bf565b827fb3b021816d44ebdd69310e6249903aada0a067402fcf0db1d4c49849f8715879836040516107cf919061287a565b60405180910390a2505050565b6060600460008373ffffffffffffffffffffffffffffffffffffffff1673ffffffffffffffffffffffffffffffffffffffff16815260200190815260200160002080548060200260200160405190810160405280929190818152602001828054801561086757602002820191906000526020600020905b815481526020019060010190808311610853575b50505050509050919050565b60008061087f83612168565b604051806101c0016040529081600082015481526020016001820160009054906101000a900473ffffffffffffffffffffffffffffffffffffffff1673ffffffffffffffffffffffffffffffffffffffff1673ffffffffffffffffffffffffffffffffffffffff1681526020016002820180546108fb90613330565b80601f016020809104026020016040519081016040528092919081815260200182805461092790613330565b80156109745780601f1061094957610100808354040283529160200191610974565b820191906000526020600020905b81548152906001019060200180831161095757829003601f168201915b5050505050815260200160038201805461098d90613330565b80601f01602080910402602001604051908101604052809291908181526020018280546109b990613330565b8015610a065780601f106109db57610100808354040283529160200191610a06565b820191906000526020600020905b8154815290600101906020018083116109e957829003601f168201915b50505050508152602001600482018054610a1f90613330565b80601f0160208091040260200160405190810160405280929190818152602001828054610a4b90613330565b8015610a985780601f10610a6d57610100808354040283529160200191610a98565b820191906000526020600020905b815481529060010190602001808311610a7b57829003601f168201915b505050505081526020016005820154815260200160068201548152602001600782015481526020016008820154815260200160098201805480602002602001604051908101604052809291908181526020016000905b82821015610b9a578382906000526020600020018054610b0d90613330565b80601f0160208091040260200160405190810160405280929190818152602001828054610b3990613330565b8015610b865780601f10610b5b57610100808354040283529160200191610b86565b820191906000526020600020905b815481529060010190602001808311610b6957829003601f168201915b505050505081526020019060010190610aee565b505050508152602001600a82018054610bb290613330565b80601f0160208091040260200160405190810160405280929190818152602001828054610bde90613330565b8015610c2b5780601f10610c0057610100808354040283529160200191610c2b565b820191906000526020600020905b815481529060010190602001808311610c0e57829003601f168201915b50505050508152602001600b820160009054906101000a900460ff16151515158152602001600b820160019054906101000a900460ff16151515158152602001600b820160029054906101000a900460ff16151515158152505090508060a001518160c001511015915050919050565b7f000000000000000000000000000000000000000000000000000000000000000081565b6060600060025467ffffffffffffffff811115610cdf57610cde612c31565b5b604051908082528060200260200182016040528015610d0d5781602001602082028036833780820191505090505b50905060005b600254811015610d4e5780828281518110610d3157610d30613361565b5b60200260200101818152505080610d47906133bf565b9050610d13565b508091505090565b610d5e612304565b6000610d6983612168565b9050610d748161234a565b60003403610dae576040517f1f2a200500000000000000000000000000000000000000000000000000000000815260040160405180910390fd5b34816006016000828254610dc29190613407565b925050819055503373ffffffffffffffffffffffffffffffffffffffff16837f901b065a31fc52bd5e941b3972b3d5486d93792219884dcc03c9529a9c23560c344286604051610e1493929190613485565b60405180910390a350610e256124b4565b5050565b6000610e33612304565b610e3b6124bd565b6000885103610e76576040517f2ef1310500000000000000000000000000000000000000000000000000000000815260040160405180910390fd5b60008503610eb0576040517f9b60eb4d00000000000000000000000000000000000000000000000000000000815260040160405180910390fd5b6007841080610ebf5750605a84115b15610ef6576040517f7616640100000000000000000000000000000000000000000000000000000000815260040160405180910390fd5b600060026000815480929190610f0b906133bf565b919050559050604051806101c001604052808281526020013373ffffffffffffffffffffffffffffffffffffffff1681526020018a81526020018981526020018881526020018781526020016000815260200142815260200186815260200185815260200184815260200160011515815260200160001515815260200160001515815250600360008381526020019081526020016000206000820151816000015560208201518160010160006101000a81548173ffffffffffffffffffffffffffffffffffffffff021916908373ffffffffffffffffffffffffffffffffffffffff16021790555060408201518160020190816110089190613665565b50606082015181600301908161101e9190613665565b5060808201518160040190816110349190613665565b5060a0820151816005015560c0820151816006015560e08201518160070155610100820151816008015561012082015181600901908051906020019061107b929190612661565b5061014082015181600a0190816110929190613665565b5061016082015181600b0160006101000a81548160ff02191690831515021790555061018082015181600b0160016101000a81548160ff0219169083151502179055506101a082015181600b0160026101000a81548160ff021916908315150217905550905050600460003373ffffffffffffffffffffffffffffffffffffffff1673ffffffffffffffffffffffffffffffffffffffff1681526020019081526020016000208190806001815401808255809150506001900390600052602060002001600090919091909150553373ffffffffffffffffffffffffffffffffffffffff16817fdc26653af5b99b2da33e2ad69ee6600d9aeccc82b034501db4338309615ca2388b89896040516111aa93929190613737565b60405180910390a3809150506111be6124b4565b979650505050505050565b600080600084815260200190815260200160002060000160008373ffffffffffffffffffffffffffffffffffffffff1673ffffffffffffffffffffffffffffffffffffffff16815260200190815260200160002060009054906101000a900460ff16905092915050565b6000801b81565b60008061124683612168565b604051806101c0016040529081600082015481526020016001820160009054906101000a900473ffffffffffffffffffffffffffffffffffffffff1673ffffffffffffffffffffffffffffffffffffffff1673ffffffffffffffffffffffffffffffffffffffff1681526020016002820180546112c290613330565b80601f01602080910402602001604051908101604052809291908181526020018280546112ee90613330565b801561133b5780601f106113105761010080835404028352916020019161133b565b820191906000526020600020905b81548152906001019060200180831161131e57829003601f168201915b5050505050815260200160038201805461135490613330565b80601f016020809104026020016040519081016040528092919081815260200182805461138090613330565b80156113cd5780601f106113a2576101008083540402835291602001916113cd565b820191906000526020600020905b8154815290600101906020018083116113b057829003601f168201915b505050505081526020016004820180546113e690613330565b80601f016020809104026020016040519081016040528092919081815260200182805461141290613330565b801561145f5780601f106114345761010080835404028352916020019161145f565b820191906000526020600020905b81548152906001019060200180831161144257829003601f168201915b505050505081526020016005820154815260200160068201548152602001600782015481526020016008820154815260200160098201805480602002602001604051908101604052809291908181526020016000905b828210156115615783829060005260206000200180546114d490613330565b80601f016020809104026020016040519081016040528092919081815260200182805461150090613330565b801561154d5780601f106115225761010080835404028352916020019161154d565b820191906000526020600020905b81548152906001019060200180831161153057829003601f168201915b5050505050815260200190600101906114b5565b505050508152602001600a8201805461157990613330565b80601f01602080910402602001604051908101604052809291908181526020018280546115a590613330565b80156115f25780601f106115c7576101008083540402835291602001916115f2565b820191906000526020600020905b8154815290600101906020018083116115d557829003601f168201915b50505050508152602001600b820160009054906101000a900460ff16151515158152602001600b820160019054906101000a900460ff16151515158152602001600b820160029054906101000a900460ff1615151515815250509050620151808161010001516116629190613775565b8160e001516116719190613407565b421015915050919050565b611684611fad565b600061168f83612168565b90508181600b0160016101000a81548160ff0219169083151502179055506116b9826006856121bf565b827fe392f74bd87ead5a415ab135c76df56a311fdcdc4767a7c70f95183c398ffba1836040516116e9919061287a565b60405180910390a2505050565b6116ff82610606565b61170881611dae565b6117128383611ebb565b50505050565b6117206126ba565b61172982612168565b604051806101c0016040529081600082015481526020016001820160009054906101000a900473ffffffffffffffffffffffffffffffffffffffff1673ffffffffffffffffffffffffffffffffffffffff1673ffffffffffffffffffffffffffffffffffffffff1681526020016002820180546117a590613330565b80601f01602080910402602001604051908101604052809291908181526020018280546117d190613330565b801561181e5780601f106117f35761010080835404028352916020019161181e565b820191906000526020600020905b81548152906001019060200180831161180157829003601f168201915b5050505050815260200160038201805461183790613330565b80601f016020809104026020016040519081016040528092919081815260200182805461186390613330565b80156118b05780601f10611885576101008083540402835291602001916118b0565b820191906000526020600020905b81548152906001019060200180831161189357829003601f168201915b505050505081526020016004820180546118c990613330565b80601f01602080910402602001604051908101604052809291908181526020018280546118f590613330565b80156119425780601f1061191757610100808354040283529160200191611942565b820191906000526020600020905b81548152906001019060200180831161192557829003601f168201915b505050505081526020016005820154815260200160068201548152602001600782015481526020016008820154815260200160098201805480602002602001604051908101604052809291908181526020016000905b82821015611a445783829060005260206000200180546119b790613330565b80601f01602080910402602001604051908101604052809291908181526020018280546119e390613330565b8015611a305780601f10611a0557610100808354040283529160200191611a30565b820191906000526020600020905b815481529060010190602001808311611a1357829003601f168201915b505050505081526020019060010190611998565b505050508152602001600a82018054611a5c90613330565b80601f0160208091040260200160405190810160405280929190818152602001828054611a8890613330565b8015611ad55780601f10611aaa57610100808354040283529160200191611ad5565b820191906000526020600020905b815481529060010190602001808311611ab857829003601f168201915b50505050508152602001600b820160009054906101000a900460ff16151515158152602001600b820160019054906101000a900460ff16151515158152602001600b820160029054906101000a900460ff1615151515815250509050919050565b611b3e612304565b6000611b4983612168565b9050611b5481612584565b47821115611b8e576040517f356680b700000000000000000000000000000000000000000000000000000000815260040160405180910390fd5b60008160010160009054906101000a900473ffffffffffffffffffffffffffffffffffffffff1673ffffffffffffffffffffffffffffffffffffffff1683604051611bd8906137e8565b60006040518083038185875af1925050503d8060008114611c15576040519150601f19603f3d011682016040523d82523d6000602084013e611c1a565b606091505b5050905080611c55576040517f750b219c00000000000000000000000000000000000000000000000000000000815260040160405180910390fd5b8160010160009054906101000a900473ffffffffffffffffffffffffffffffffffffffff1673ffffffffffffffffffffffffffffffffffffffff16847ff440aec6b52895984d061d622e6edeba6210f7c3e059be920663140c084560d785604051611cc09190612fdb565b60405180910390a35050611cd26124b4565b5050565b6000611ce183612168565b9050611ceb611fad565b8181600b0160006101000a81548160ff021916908315150217905550827f33641491749634f1bb4cfb02728199b749f89fca34cc54faf7e74bbb8491088583604051611d37919061287a565b60405180910390a2505050565b60007f01ffc9a7000000000000000000000000000000000000000000000000000000007bffffffffffffffffffffffffffffffffffffffffffffffffffffffff1916827bffffffffffffffffffffffffffffffffffffffffffffffffffffffff1916149050919050565b611dbf81611dba611eb3565b612610565b50565b6000611dce83836111c9565b611ea857600160008085815260200190815260200160002060000160008473ffffffffffffffffffffffffffffffffffffffff1673ffffffffffffffffffffffffffffffffffffffff16815260200190815260200160002060006101000a81548160ff021916908315150217905550611e45611eb3565b73ffffffffffffffffffffffffffffffffffffffff168273ffffffffffffffffffffffffffffffffffffffff16847f2f8788117e7eff1d82e926ec794901d17c78024a50270940304540a733656f0d60405160405180910390a460019050611ead565b600090505b92915050565b600033905090565b6000611ec783836111c9565b15611fa257600080600085815260200190815260200160002060000160008473ffffffffffffffffffffffffffffffffffffffff1673ffffffffffffffffffffffffffffffffffffffff16815260200190815260200160002060006101000a81548160ff021916908315150217905550611f3f611eb3565b73ffffffffffffffffffffffffffffffffffffffff168273ffffffffffffffffffffffffffffffffffffffff16847ff6391f5c32d9c69d2a47ea670b442974b53935d1edc7fd64eb21e047a839171b60405160405180910390a460019050611fa7565b600090505b92915050565b7f000000000000000000000000000000000000000000000000000000000000000073ffffffffffffffffffffffffffffffffffffffff166391d148547f0ce23c3e399818cfee81a7ab0880f714e53d7672b08df0fa62f2843416e1ea09336040518363ffffffff1660e01b815260040161202892919061380c565b602060405180830381865afa158015612045573d6000803e3d6000fd5b505050506040513d601f19601f82011682018060405250810190612069919061384a565b15801561212f57507f000000000000000000000000000000000000000000000000000000000000000073ffffffffffffffffffffffffffffffffffffffff166391d148547fa49807205ce4d355092ef5a8a18f56e8913cf4a201fbe287825b095693c21775336040518363ffffffff1660e01b81526004016120ec92919061380c565b602060405180830381865afa158015612109573d6000803e3d6000fd5b505050506040513d601f19601f8201168201806040525081019061212d919061384a565b155b15612166576040517f2466355600000000000000000000000000000000000000000000000000000000815260040160405180910390fd5b565b600060025482106121a5576040517fbfdaf6ba00000000000000000000000000000000000000000000000000000000815260040160405180910390fd5b600360008381526020019081526020016000209050919050565b821561223d5760005b828054905081101561220f57818382815481106121e8576121e7613361565b5b9060005260206000200154036121fe57506122ff565b80612208906133bf565b90506121c8565b50818190806001815401808255809150506001900390600052602060002001600090919091909150556122fe565b60005b82805490508110156122fc57818382815481106122605761225f613361565b5b9060005260206000200154036122eb5782600184805490506122829190613877565b8154811061229357612292613361565b5b90600052602060002001548382815481106122b1576122b0613361565b5b9060005260206000200181905550828054806122d0576122cf6138ab565b5b600190038181906000526020600020016000905590556122fc565b806122f5906133bf565b9050612240565b505b5b505050565b600260015403612340576040517f3ee5aeb500000000000000000000000000000000000000000000000000000000815260040160405180910390fd5b6002600181905550565b80600b0160009054906101000a900460ff16612392576040517f952ce6dd00000000000000000000000000000000000000000000000000000000815260040160405180910390fd5b7f000000000000000000000000000000000000000000000000000000000000000073ffffffffffffffffffffffffffffffffffffffff166322f3e2d46040518163ffffffff1660e01b8152600401602060405180830381865afa1580156123fd573d6000803e3d6000fd5b505050506040513d601f19601f82011682018060405250810190612421919061384a565b612457576040517f40a3745b00000000000000000000000000000000000000000000000000000000815260040160405180910390fd5b62015180816008015461246a9190613775565b81600701546124799190613407565b42106124b1576040517f553ae05400000000000000000000000000000000000000000000000000000000815260040160405180910390fd5b50565b60018081905550565b7f000000000000000000000000000000000000000000000000000000000000000073ffffffffffffffffffffffffffffffffffffffff166322f3e2d46040518163ffffffff1660e01b8152600401602060405180830381865afa158015612528573d6000803e3d6000fd5b505050506040513d601f19601f8201168201806040525081019061254c919061384a565b612582576040517f40a3745b00000000000000000000000000000000000000000000000000000000815260040160405180910390fd5b565b8060010160009054906101000a900473ffffffffffffffffffffffffffffffffffffffff1673ffffffffffffffffffffffffffffffffffffffff163373ffffffffffffffffffffffffffffffffffffffff161461260d576040517f30cd747100000000000000000000000000000000000000000000000000000000815260040160405180910390fd5b50565b61261a82826111c9565b61265d5780826040517fe2517d3f0000000000000000000000000000000000000000000000000000000081526004016126549291906138da565b60405180910390fd5b5050565b8280548282559060005260206000209081019282156126a9579160200282015b828111156126a85782518290816126989190613665565b5091602001919060010190612681565b5b5090506126b69190612745565b5090565b604051806101c0016040528060008152602001600073ffffffffffffffffffffffffffffffffffffffff1681526020016060815260200160608152602001606081526020016000815260200160008152602001600081526020016000815260200160608152602001606081526020016000151581526020016000151581526020016000151581525090565b5b80821115612765576000818161275c9190612769565b50600101612746565b5090565b50805461277590613330565b6000825580601f1061278757506127a6565b601f0160209004906000526020600020908101906127a591906127a9565b5b50565b5b808211156127c25760008160009055506001016127aa565b5090565b6000604051905090565b600080fd5b600080fd5b60007fffffffff0000000000000000000000000000000000000000000000000000000082169050919050565b61280f816127da565b811461281a57600080fd5b50565b60008135905061282c81612806565b92915050565b600060208284031215612848576128476127d0565b5b60006128568482850161281d565b91505092915050565b60008115159050919050565b6128748161285f565b82525050565b600060208201905061288f600083018461286b565b92915050565b600081519050919050565b600082825260208201905092915050565b6000819050602082019050919050565b6000819050919050565b6128d4816128c1565b82525050565b60006128e683836128cb565b60208301905092915050565b6000602082019050919050565b600061290a82612895565b61291481856128a0565b935061291f836128b1565b8060005b8381101561295057815161293788826128da565b9750612942836128f2565b925050600181019050612923565b5085935050505092915050565b6000602082019050818103600083015261297781846128ff565b905092915050565b6000819050919050565b6129928161297f565b811461299d57600080fd5b50565b6000813590506129af81612989565b92915050565b6000602082840312156129cb576129ca6127d0565b5b60006129d9848285016129a0565b91505092915050565b6129eb8161297f565b82525050565b6000602082019050612a0660008301846129e2565b92915050565b600073ffffffffffffffffffffffffffffffffffffffff82169050919050565b6000612a3782612a0c565b9050919050565b612a4781612a2c565b8114612a5257600080fd5b50565b600081359050612a6481612a3e565b92915050565b60008060408385031215612a8157612a806127d0565b5b6000612a8f858286016129a0565b9250506020612aa085828601612a55565b9150509250929050565b612ab3816128c1565b8114612abe57600080fd5b50565b600081359050612ad081612aaa565b92915050565b612adf8161285f565b8114612aea57600080fd5b50565b600081359050612afc81612ad6565b92915050565b60008060408385031215612b1957612b186127d0565b5b6000612b2785828601612ac1565b9250506020612b3885828601612aed565b9150509250929050565b600060208284031215612b5857612b576127d0565b5b6000612b6684828501612a55565b91505092915050565b600060208284031215612b8557612b846127d0565b5b6000612b9384828501612ac1565b91505092915050565b6000819050919050565b6000612bc1612bbc612bb784612a0c565b612b9c565b612a0c565b9050919050565b6000612bd382612ba6565b9050919050565b6000612be582612bc8565b9050919050565b612bf581612bda565b82525050565b6000602082019050612c106000830184612bec565b92915050565b600080fd5b600080fd5b6000601f19601f8301169050919050565b7f4e487b7100000000000000000000000000000000000000000000000000000000600052604160045260246000fd5b612c6982612c20565b810181811067ffffffffffffffff82111715612c8857612c87612c31565b5b80604052505050565b6000612c9b6127c6565b9050612ca78282612c60565b919050565b600067ffffffffffffffff821115612cc757612cc6612c31565b5b612cd082612c20565b9050602081019050919050565b82818337600083830152505050565b6000612cff612cfa84612cac565b612c91565b905082815260208101848484011115612d1b57612d1a612c1b565b5b612d26848285612cdd565b509392505050565b600082601f830112612d4357612d42612c16565b5b8135612d53848260208601612cec565b91505092915050565b60008060408385031215612d7357612d726127d0565b5b6000612d8185828601612ac1565b925050602083013567ffffffffffffffff811115612da257612da16127d5565b5b612dae85828601612d2e565b9150509250929050565b600067ffffffffffffffff821115612dd357612dd2612c31565b5b602082029050602081019050919050565b600080fd5b6000612dfc612df784612db8565b612c91565b90508083825260208201905060208402830185811115612e1f57612e1e612de4565b5b835b81811015612e6657803567ffffffffffffffff811115612e4457612e43612c16565b5b808601612e518982612d2e565b85526020850194505050602081019050612e21565b5050509392505050565b600082601f830112612e8557612e84612c16565b5b8135612e95848260208601612de9565b91505092915050565b600080600080600080600060e0888a031215612ebd57612ebc6127d0565b5b600088013567ffffffffffffffff811115612edb57612eda6127d5565b5b612ee78a828b01612d2e565b975050602088013567ffffffffffffffff811115612f0857612f076127d5565b5b612f148a828b01612d2e565b965050604088013567ffffffffffffffff811115612f3557612f346127d5565b5b612f418a828b01612d2e565b9550506060612f528a828b01612ac1565b9450506080612f638a828b01612ac1565b93505060a088013567ffffffffffffffff811115612f8457612f836127d5565b5b612f908a828b01612e70565b92505060c088013567ffffffffffffffff811115612fb157612fb06127d5565b5b612fbd8a828b01612d2e565b91505092959891949750929550565b612fd5816128c1565b82525050565b6000602082019050612ff06000830184612fcc565b92915050565b612fff81612a2c565b82525050565b600081519050919050565b600082825260208201905092915050565b60005b8381101561303f578082015181840152602081019050613024565b60008484015250505050565b600061305682613005565b6130608185613010565b9350613070818560208601613021565b61307981612c20565b840191505092915050565b600081519050919050565b600082825260208201905092915050565b6000819050602082019050919050565b60006130bc838361304b565b905092915050565b6000602082019050919050565b60006130dc82613084565b6130e6818561308f565b9350836020820285016130f8856130a0565b8060005b85811015613134578484038952815161311585826130b0565b9450613120836130c4565b925060208a019950506001810190506130fc565b50829750879550505050505092915050565b61314f8161285f565b82525050565b60006101c08301600083015161316e60008601826128cb565b5060208301516131816020860182612ff6565b5060408301518482036040860152613199828261304b565b915050606083015184820360608601526131b3828261304b565b915050608083015184820360808601526131cd828261304b565b91505060a08301516131e260a08601826128cb565b5060c08301516131f560c08601826128cb565b5060e083015161320860e08601826128cb565b5061010083015161321d6101008601826128cb565b5061012083015184820361012086015261323782826130d1565b915050610140830151848203610140860152613253828261304b565b91505061016083015161326a610160860182613146565b5061018083015161327f610180860182613146565b506101a08301516132946101a0860182613146565b508091505092915050565b600060208201905081810360008301526132b98184613155565b905092915050565b600080604083850312156132d8576132d76127d0565b5b60006132e685828601612ac1565b92505060206132f785828601612ac1565b9150509250929050565b7f4e487b7100000000000000000000000000000000000000000000000000000000600052602260045260246000fd5b6000600282049050600182168061334857607f821691505b60208210810361335b5761335a613301565b5b50919050565b7f4e487b7100000000000000000000000000000000000000000000000000000000600052603260045260246000fd5b7f4e487b7100000000000000000000000000000000000000000000000000000000600052601160045260246000fd5b60006133ca826128c1565b91507fffffffffffffffffffffffffffffffffffffffffffffffffffffffffffffffff82036133fc576133fb613390565b5b600182019050919050565b6000613412826128c1565b915061341d836128c1565b925082820190508082111561343557613434613390565b5b92915050565b600082825260208201905092915050565b600061345782613005565b613461818561343b565b9350613471818560208601613021565b61347a81612c20565b840191505092915050565b600060608201905061349a6000830186612fcc565b6134a76020830185612fcc565b81810360408301526134b9818461344c565b9050949350505050565b60008190508160005260206000209050919050565b60006020601f8301049050919050565b600082821b905092915050565b6000600883026135257fffffffffffffffffffffffffffffffffffffffffffffffffffffffffffffffff826134e8565b61352f86836134e8565b95508019841693508086168417925050509392505050565b600061356261355d613558846128c1565b612b9c565b6128c1565b9050919050565b6000819050919050565b61357c83613547565b61359061358882613569565b8484546134f5565b825550505050565b600090565b6135a5613598565b6135b0818484613573565b505050565b5b818110156135d4576135c960008261359d565b6001810190506135b6565b5050565b601f821115613619576135ea816134c3565b6135f3846134d8565b81016020851015613602578190505b61361661360e856134d8565b8301826135b5565b50505b505050565b600082821c905092915050565b600061363c6000198460080261361e565b1980831691505092915050565b6000613655838361362b565b9150826002028217905092915050565b61366e82613005565b67ffffffffffffffff81111561368757613686612c31565b5b6136918254613330565b61369c8282856135d8565b600060209050601f8311600181146136cf57600084156136bd578287015190505b6136c78582613649565b86555061372f565b601f1984166136dd866134c3565b60005b82811015613705578489015182556001820191506020850194506020810190506136e0565b86831015613722578489015161371e601f89168261362b565b8355505b6001600288020188555050505b505050505050565b60006060820190508181036000830152613751818661344c565b90506137606020830185612fcc565b61376d6040830184612fcc565b949350505050565b6000613780826128c1565b915061378b836128c1565b9250828202613799816128c1565b915082820484148315176137b0576137af613390565b5b5092915050565b600081905092915050565b50565b60006137d26000836137b7565b91506137dd826137c2565b600082019050919050565b60006137f3826137c5565b9150819050919050565b61380681612a2c565b82525050565b600060408201905061382160008301856129e2565b61382e60208301846137fd565b9392505050565b60008151905061384481612ad6565b92915050565b6000602082840312156138605761385f6127d0565b5b600061386e84828501613835565b91505092915050565b6000613882826128c1565b915061388d836128c1565b92508282039050818111156138a5576138a4613390565b5b92915050565b7f4e487b7100000000000000000000000000000000000000000000000000000000600052603160045260246000fd5b60006040820190506138ef60008301856137fd565b6138fc60208301846129e2565b939250505056fea2646970667358221220763b06a3684ec6eb164a97b0f4fa4f58c79137af164b2618c261d33226d62e3c64736f6c63430008140033",
  "linkReferences": {},
  "deployedLinkReferences": {}
}