{
  "_format": "hh-sol-artifact-1",
  "contractName": "CampaignManager",
  "sourceName": "contracts/CampaignManager.sol",
  "abi": [
    {
      "inputs": [
        {
          "internalType": "address",
          "name": "_registryAddress",
          "type": "address"
        }
      ],
      "stateMutability": "nonpayable",
      "type": "constructor"
    },
    {
      "inputs": [],
      "name": "AccessControlBadConfirmation",
      "type": "error"
    },
    {
      "inputs": [
        {
          "internalType": "address",
          "name": "account",
          "type": "address"
        },
        {
          "internalType": "bytes32",
          "name": "neededRole",
          "type": "bytes32"
        }
      ],
      "name": "AccessControlUnauthorizedAccount",
      "type": "error"
    },
    {
      "inputs": [],
      "name": "CampaignEnded",
      "type": "error"
    },
    {
      "inputs": [],
      "name": "CampaignNotExist",
      "type": "error"
    },
    {
      "inputs": [],
      "name": "CampaignNotVerified",
      "type": "error"
    },
    {
      "inputs": [],
      "name": "EmptyName",
      "type": "error"
    },
    {
      "inputs": [],
      "name": "FeeTransferFailed",
      "type": "error"
    },
    {
      "inputs": [],
      "name": "InactiveCampaign",
      "type": "error"
    },
    {
      "inputs": [],
      "name": "InsufficientFee",
      "type": "error"
    },
    {
      "inputs": [],
      "name": "InsufficientFunds",
      "type": "error"
    },
    {
      "inputs": [],
      "name": "InvalidDuration",
      "type": "error"
    },
    {
      "inputs": [],
      "name": "InvalidGoal",
      "type": "error"
    },
    {
      "inputs": [],
      "name": "InvalidRegistry",
      "type": "error"
    },
    {
      "inputs": [],
      "name": "NotOwner",
      "type": "error"
    },
    {
      "inputs": [],
      "name": "NotVerifier",
      "type": "error"
    },
    {
      "inputs": [],
      "name": "PlatformPaused",
      "type": "error"
    },
    {
      "inputs": [],
      "name": "ReentrancyGuardReentrantCall",
      "type": "error"
    },
    {
      "inputs": [],
      "name": "WithdrawFailed",
      "type": "error"
    },
    {
      "inputs": [],
      "name": "ZeroAmount",
      "type": "error"
    },
    {
      "anonymous": false,
      "inputs": [
        {
          "indexed": true,
          "internalType": "uint256",
          "name": "campaignId",
          "type": "uint256"
        },
        {
          "indexed": true,
          "internalType": "address",
          "name": "owner",
          "type": "address"
        },
        {
          "indexed": false,
          "internalType": "string",
          "name": "name",
          "type": "string"
        },
        {
          "indexed": false,
          "internalType": "uint256",
          "name": "goal",
          "type": "uint256"
        },
        {
          "indexed": false,
          "internalType": "uint256",
          "name": "duration",
          "type": "uint256"
        }
      ],
      "name": "CampaignCreated",
      "type": "event"
    },
    {
      "anonymous": false,
      "inputs": [
        {
          "indexed": true,
          "internalType": "uint256",
          "name": "campaignId",
          "type": "uint256"
        },
        {
          "indexed": false,
          "internalType": "bool",
          "name": "featured",
          "type": "bool"
        }
      ],
      "name": "CampaignFeatured",
      "type": "event"
    },
    {
      "anonymous": false,
      "inputs": [
        {
          "indexed": true,
          "internalType": "uint256",
          "name": "campaignId",
          "type": "uint256"
        },
        {
          "indexed": false,
          "internalType": "bool",
          "name": "isActive",
          "type": "bool"
        }
      ],
      "name": "CampaignStatusChanged",
      "type": "event"
    },
    {
      "anonymous": false,
      "inputs": [
        {
          "indexed": true,
          "internalType": "uint256",
          "name": "campaignId",
          "type": "uint256"
        },
        {
          "indexed": false,
          "internalType": "bool",
          "name": "verified",
          "type": "bool"
        }
      ],
      "name": "CampaignVerified",
      "type": "event"
    },
    {
      "anonymous": false,
      "inputs": [
        {
          "indexed": true,
          "internalType": "uint256",
          "name": "campaignId",
          "type": "uint256"
        },
        {
          "indexed": true,
          "internalType": "address",
          "name": "donor",
          "type": "address"
        },
        {
          "indexed": false,
          "internalType": "uint256",
          "name": "amount",
          "type": "uint256"
        },
        {
          "indexed": false,
          "internalType": "uint256",
          "name": "timestamp",
          "type": "uint256"
        },
        {
          "indexed": false,
          "internalType": "string",
          "name": "nftId",
          "type": "string"
        }
      ],
      "name": "DonationReceived",
      "type": "event"
    },
    {
      "anonymous": false,
      "inputs": [
        {
          "indexed": true,
          "internalType": "uint256",
          "name": "campaignId",
          "type": "uint256"
        },
        {
          "indexed": true,
          "internalType": "address",
          "name": "recipient",
          "type": "address"
        },
        {
          "indexed": false,
          "internalType": "uint256",
          "name": "amount",
          "type": "uint256"
        }
      ],
      "name": "FundsWithdrawn",
      "type": "event"
    },
    {
      "anonymous": false,
      "inputs": [
        {
          "indexed": true,
          "internalType": "bytes32",
          "name": "role",
          "type": "bytes32"
        },
        {
          "indexed": true,
          "internalType": "bytes32",
          "name": "previousAdminRole",
          "type": "bytes32"
        },
        {
          "indexed": true,
          "internalType": "bytes32",
          "name": "newAdminRole",
          "type": "bytes32"
        }
      ],
      "name": "RoleAdminChanged",
      "type": "event"
    },
    {
      "anonymous": false,
      "inputs": [
        {
          "indexed": true,
          "internalType": "bytes32",
          "name": "role",
          "type": "bytes32"
        },
        {
          "indexed": true,
          "internalType": "address",
          "name": "account",
          "type": "address"
        },
        {
          "indexed": true,
          "internalType": "address",
          "name": "sender",
          "type": "address"
        }
      ],
      "name": "RoleGranted",
      "type": "event"
    },
    {
      "anonymous": false,
      "inputs": [
        {
          "indexed": true,
          "internalType": "bytes32",
          "name": "role",
          "type": "bytes32"
        },
        {
          "indexed": true,
          "internalType": "address",
          "name": "account",
          "type": "address"
        },
        {
          "indexed": true,
          "internalType": "address",
          "name": "sender",
          "type": "address"
        }
      ],
      "name": "RoleRevoked",
      "type": "event"
    },
    {
      "inputs": [],
      "name": "DEFAULT_ADMIN_ROLE",
      "outputs": [
        {
          "internalType": "bytes32",
          "name": "",
          "type": "bytes32"
        }
      ],
      "stateMutability": "view",
      "type": "function"
    },
    {
      "inputs": [
        {
          "internalType": "string",
          "name": "_name",
          "type": "string"
        },
        {
          "internalType": "string",
          "name": "_description",
          "type": "string"
        },
        {
          "internalType": "string",
          "name": "_story",
          "type": "string"
        },
        {
          "internalType": "uint256",
          "name": "_goal",
          "type": "uint256"
        },
        {
          "internalType": "uint256",
          "name": "_duration",
          "type": "uint256"
        },
        {
          "internalType": "string[]",
          "name": "_impacts",
          "type": "string[]"
        },
        {
          "internalType": "string",
          "name": "_imageURI",
          "type": "string"
        }
      ],
      "name": "createCampaign",
      "outputs": [
        {
          "internalType": "uint256",
          "name": "",
          "type": "uint256"
        }
      ],
      "stateMutability": "nonpayable",
      "type": "function"
    },
    {
      "inputs": [
        {
          "internalType": "uint256",
          "name": "_campaignId",
          "type": "uint256"
        },
        {
          "internalType": "string",
          "name": "_nftId",
          "type": "string"
        }
      ],
      "name": "donate",
      "outputs": [],
      "stateMutability": "payable",
      "type": "function"
    },
    {
      "inputs": [],
      "name": "getAllCampaigns",
      "outputs": [
        {
          "internalType": "uint256[]",
          "name": "",
          "type": "uint256[]"
        }
      ],
      "stateMutability": "view",
      "type": "function"
    },
    {
      "inputs": [
        {
          "internalType": "uint256",
          "name": "_campaignId",
          "type": "uint256"
        }
      ],
      "name": "getCampaignInfo",
      "outputs": [
        {
          "components": [
            {
              "internalType": "uint256",
              "name": "id",
              "type": "uint256"
            },
            {
              "internalType": "address",
              "name": "owner",
              "type": "address"
            },
            {
              "internalType": "string",
              "name": "name",
              "type": "string"
            },
            {
              "internalType": "string",
              "name": "description",
              "type": "string"
            },
            {
              "internalType": "string",
              "name": "story",
              "type": "string"
            },
            {
              "internalType": "uint256",
              "name": "goal",
              "type": "uint256"
            },
            {
              "internalType": "uint256",
              "name": "raisedAmount",
              "type": "uint256"
            },
            {
              "internalType": "uint256",
              "name": "createdAt",
              "type": "uint256"
            },
            {
              "internalType": "uint256",
              "name": "duration",
              "type": "uint256"
            },
            {
              "internalType": "string[]",
              "name": "impacts",
              "type": "string[]"
            },
            {
              "internalType": "string",
              "name": "imageURI",
              "type": "string"
            },
            {
              "internalType": "bool",
              "name": "isActive",
              "type": "bool"
            },
            {
              "internalType": "bool",
              "name": "verified",
              "type": "bool"
            },
            {
              "internalType": "bool",
              "name": "featured",
              "type": "bool"
            }
          ],
          "internalType": "struct CampaignManager.CampaignInfo",
          "name": "",
          "type": "tuple"
        }
      ],
      "stateMutability": "view",
      "type": "function"
    },
    {
      "inputs": [
        {
          "internalType": "address",
          "name": "_owner",
          "type": "address"
        }
      ],
      "name": "getCampaignsByOwner",
      "outputs": [
        {
          "internalType": "uint256[]",
          "name": "",
          "type": "uint256[]"
        }
      ],
      "stateMutability": "view",
      "type": "function"
    },
    {
      "inputs": [],
      "name": "getFeaturedCampaigns",
      "outputs": [
        {
          "internalType": "uint256[]",
          "name": "",
          "type": "uint256[]"
        }
      ],
      "stateMutability": "view",
      "type": "function"
    },
    {
      "inputs": [
        {
          "internalType": "bytes32",
          "name": "role",
          "type": "bytes32"
        }
      ],
      "name": "getRoleAdmin",
      "outputs": [
        {
          "internalType": "bytes32",
          "name": "",
          "type": "bytes32"
        }
      ],
      "stateMutability": "view",
      "type": "function"
    },
    {
      "inputs": [],
      "name": "getVerifiedCampaigns",
      "outputs": [
        {
          "internalType": "uint256[]",
          "name": "",
          "type": "uint256[]"
        }
      ],
      "stateMutability": "view",
      "type": "function"
    },
    {
      "inputs": [
        {
          "internalType": "uint256",
          "name": "_campaignId",
          "type": "uint256"
        }
      ],
      "name": "goalReached",
      "outputs": [
        {
          "internalType": "bool",
          "name": "",
          "type": "bool"
        }
      ],
      "stateMutability": "view",
      "type": "function"
    },
    {
      "inputs": [
        {
          "internalType": "bytes32",
          "name": "role",
          "type": "bytes32"
        },
        {
          "internalType": "address",
          "name": "account",
          "type": "address"
        }
      ],
      "name": "grantRole",
      "outputs": [],
      "stateMutability": "nonpayable",
      "type": "function"
    },
    {
      "inputs": [
        {
          "internalType": "uint256",
          "name": "_campaignId",
          "type": "uint256"
        }
      ],
      "name": "hasEnded",
      "outputs": [
        {
          "internalType": "bool",
          "name": "",
          "type": "bool"
        }
      ],
      "stateMutability": "view",
      "type": "function"
    },
    {
      "inputs": [
        {
          "internalType": "bytes32",
          "name": "role",
          "type": "bytes32"
        },
        {
          "internalType": "address",
          "name": "account",
          "type": "address"
        }
      ],
      "name": "hasRole",
      "outputs": [
        {
          "internalType": "bool",
          "name": "",
          "type": "bool"
        }
      ],
      "stateMutability": "view",
      "type": "function"
    },
    {
      "inputs": [],
      "name": "registry",
      "outputs": [
        {
          "internalType": "contract BitGiveRegistry",
          "name": "",
          "type": "address"
        }
      ],
      "stateMutability": "view",
      "type": "function"
    },
    {
      "inputs": [
        {
          "internalType": "bytes32",
          "name": "role",
          "type": "bytes32"
        },
        {
          "internalType": "address",
          "name": "callerConfirmation",
          "type": "address"
        }
      ],
      "name": "renounceRole",
      "outputs": [],
      "stateMutability": "nonpayable",
      "type": "function"
    },
    {
      "inputs": [
        {
          "internalType": "bytes32",
          "name": "role",
          "type": "bytes32"
        },
        {
          "internalType": "address",
          "name": "account",
          "type": "address"
        }
      ],
      "name": "revokeRole",
      "outputs": [],
      "stateMutability": "nonpayable",
      "type": "function"
    },
    {
      "inputs": [
        {
          "internalType": "uint256",
          "name": "_campaignId",
          "type": "uint256"
        },
        {
          "internalType": "bool",
          "name": "_isActive",
          "type": "bool"
        }
      ],
      "name": "setActive",
      "outputs": [],
      "stateMutability": "nonpayable",
      "type": "function"
    },
    {
      "inputs": [
        {
          "internalType": "uint256",
          "name": "_campaignId",
          "type": "uint256"
        },
        {
          "internalType": "bool",
          "name": "_featured",
          "type": "bool"
        }
      ],
      "name": "setFeaturedCampaign",
      "outputs": [],
      "stateMutability": "nonpayable",
      "type": "function"
    },
    {
      "inputs": [
        {
          "internalType": "bytes4",
          "name": "interfaceId",
          "type": "bytes4"
        }
      ],
      "name": "supportsInterface",
      "outputs": [
        {
          "internalType": "bool",
          "name": "",
          "type": "bool"
        }
      ],
      "stateMutability": "view",
      "type": "function"
    },
    {
      "inputs": [
        {
          "internalType": "uint256",
          "name": "_campaignId",
          "type": "uint256"
        },
        {
          "internalType": "bool",
          "name": "_verified",
          "type": "bool"
        }
      ],
      "name": "verifyCampaign",
      "outputs": [],
      "stateMutability": "nonpayable",
      "type": "function"
    },
    {
      "inputs": [
        {
          "internalType": "uint256",
          "name": "_campaignId",
          "type": "uint256"
        },
        {
          "internalType": "uint256",
          "name": "_amount",
          "type": "uint256"
        }
      ],
      "name": "withdrawFunds",
      "outputs": [],
      "stateMutability": "nonpayable",
      "type": "function"
    },
    {
      "stateMutability": "payable",
      "type": "receive"
    }
  ],
  "bytecode": "0x60a06040523480156200001157600080fd5b5060405162003c9e38038062003c9e8339818101604052810190620000379190620002d5565b60018081905550600073ffffffffffffffffffffffffffffffffffffffff168173ffffffffffffffffffffffffffffffffffffffff1603620000a5576040517f11a1e69700000000000000000000000000000000000000000000000000000000815260040160405180910390fd5b8073ffffffffffffffffffffffffffffffffffffffff1660808173ffffffffffffffffffffffffffffffffffffffff1681525050620000ee6000801b33620000f660201b60201c565b505062000307565b60006200010a8383620001f960201b60201c565b620001ee57600160008085815260200190815260200160002060000160008473ffffffffffffffffffffffffffffffffffffffff1673ffffffffffffffffffffffffffffffffffffffff16815260200190815260200160002060006101000a81548160ff0219169083151502179055506200018a6200026360201b60201c565b73ffffffffffffffffffffffffffffffffffffffff168273ffffffffffffffffffffffffffffffffffffffff16847f2f8788117e7eff1d82e926ec794901d17c78024a50270940304540a733656f0d60405160405180910390a460019050620001f3565b600090505b92915050565b600080600084815260200190815260200160002060000160008373ffffffffffffffffffffffffffffffffffffffff1673ffffffffffffffffffffffffffffffffffffffff16815260200190815260200160002060009054906101000a900460ff16905092915050565b600033905090565b600080fd5b600073ffffffffffffffffffffffffffffffffffffffff82169050919050565b60006200029d8262000270565b9050919050565b620002af8162000290565b8114620002bb57600080fd5b50565b600081519050620002cf81620002a4565b92915050565b600060208284031215620002ee57620002ed6200026b565b5b6000620002fe84828501620002be565b91505092915050565b60805161395f6200033f60003960008181610c9d01528181611fd501528181612099015281816123ba01526124e5015261395f6000f3fe60806040526004361061012e5760003560e01c806386cdf604116100ab578063c36572d61161006f578063c36572d614610416578063cc62236f14610453578063d547741f1461047c578063e38e2b82146104a5578063e5253105146104e2578063e60a955d1461050b57610135565b806386cdf6041461032a5780638d59d1f1146103555780638df910641461037157806391d14854146103ae578063a217fddf146103eb57610135565b806336568abe116100f257806336568abe1461023357806349cf77c21461025c57806351bdebb914610285578063729c521c146102c25780637b103999146102ff57610135565b806301ffc9a71461013a57806311ab195a14610177578063248a9ca3146101a25780632eb32f74146101df5780632f2ff15d1461020a57610135565b3661013557005b600080fd5b34801561014657600080fd5b50610161600480360381019061015c9190612858565b610534565b60405161016e91906128a0565b60405180910390f35b34801561018357600080fd5b5061018c6105ae565b6040516101999190612983565b60405180910390f35b3480156101ae57600080fd5b506101c960048036038101906101c491906129db565b610606565b6040516101d69190612a17565b60405180910390f35b3480156101eb57600080fd5b506101f4610625565b6040516102019190612983565b60405180910390f35b34801561021657600080fd5b50610231600480360381019061022c9190612a90565b61067d565b005b34801561023f57600080fd5b5061025a60048036038101906102559190612a90565b61069f565b005b34801561026857600080fd5b50610283600480360381019061027e9190612b28565b61071a565b005b34801561029157600080fd5b506102ac60048036038101906102a79190612b68565b6107dc565b6040516102b99190612983565b60405180910390f35b3480156102ce57600080fd5b506102e960048036038101906102e49190612b95565b610873565b6040516102f691906128a0565b60405180910390f35b34801561030b57600080fd5b50610314610c9b565b6040516103219190612c21565b60405180910390f35b34801561033657600080fd5b5061033f610cbf565b60405161034c9190612983565b60405180910390f35b61036f600480360381019061036a9190612d82565b610d56565b005b34801561037d57600080fd5b5061039860048036038101906103939190612ec4565b610e29565b6040516103a59190613001565b60405180910390f35b3480156103ba57600080fd5b506103d560048036038101906103d09190612a90565b6111c9565b6040516103e291906128a0565b60405180910390f35b3480156103f757600080fd5b50610400611233565b60405161040d9190612a17565b60405180910390f35b34801561042257600080fd5b5061043d60048036038101906104389190612b95565b61123a565b60405161044a91906128a0565b60405180910390f35b34801561045f57600080fd5b5061047a60048036038101906104759190612b28565b61167c565b005b34801561048857600080fd5b506104a3600480360381019061049e9190612a90565b6116f6565b005b3480156104b157600080fd5b506104cc60048036038101906104c79190612b95565b611718565b6040516104d991906132c5565b60405180910390f35b3480156104ee57600080fd5b50610509600480360381019061050491906132e7565b611b36565b005b34801561051757600080fd5b50610532600480360381019061052d9190612b28565b611cfc565b005b60007f7965db0b000000000000000000000000000000000000000000000000000000007bffffffffffffffffffffffffffffffffffffffffffffffffffffffff1916827bffffffffffffffffffffffffffffffffffffffffffffffffffffffff191614806105a757506105a682611d6a565b5b9050919050565b606060058054806020026020016040519081016040528092919081815260200182805480156105fc57602002820191906000526020600020905b8154815260200190600101908083116105e8575b5050505050905090565b6000806000838152602001908152602001600020600101549050919050565b6060600680548060200260200160405190810160405280929190818152602001828054801561067357602002820191906000526020600020905b81548152602001906001019080831161065f575b5050505050905090565b61068682610606565b61068f81611dd4565b6106998383611de8565b50505050565b6106a7611ed9565b73ffffffffffffffffffffffffffffffffffffffff168173ffffffffffffffffffffffffffffffffffffffff161461070b576040517f6697b23200000000000000000000000000000000000000000000000000000000815260040160405180910390fd5b6107158282611ee1565b505050565b610722611fd3565b600061072d8361218e565b905080600b0160019054906101000a900460ff16610777576040517f37cc7d7400000000000000000000000000000000000000000000000000000000815260040160405180910390fd5b8181600b0160026101000a81548160ff02191690831515021790555061079f826005856121e5565b827fb3b021816d44ebdd69310e6249903aada0a067402fcf0db1d4c49849f8715879836040516107cf91906128a0565b60405180910390a2505050565b6060600460008373ffffffffffffffffffffffffffffffffffffffff1673ffffffffffffffffffffffffffffffffffffffff16815260200190815260200160002080548060200260200160405190810160405280929190818152602001828054801561086757602002820191906000526020600020905b815481526020019060010190808311610853575b50505050509050919050565b60008061087f8361218e565b604051806101c0016040529081600082015481526020016001820160009054906101000a900473ffffffffffffffffffffffffffffffffffffffff1673ffffffffffffffffffffffffffffffffffffffff1673ffffffffffffffffffffffffffffffffffffffff1681526020016002820180546108fb90613356565b80601f016020809104026020016040519081016040528092919081815260200182805461092790613356565b80156109745780601f1061094957610100808354040283529160200191610974565b820191906000526020600020905b81548152906001019060200180831161095757829003601f168201915b5050505050815260200160038201805461098d90613356565b80601f01602080910402602001604051908101604052809291908181526020018280546109b990613356565b8015610a065780601f106109db57610100808354040283529160200191610a06565b820191906000526020600020905b8154815290600101906020018083116109e957829003601f168201915b50505050508152602001600482018054610a1f90613356565b80601f0160208091040260200160405190810160405280929190818152602001828054610a4b90613356565b8015610a985780601f10610a6d57610100808354040283529160200191610a98565b820191906000526020600020905b815481529060010190602001808311610a7b57829003601f168201915b505050505081526020016005820154815260200160068201548152602001600782015481526020016008820154815260200160098201805480602002602001604051908101604052809291908181526020016000905b82821015610b9a578382906000526020600020018054610b0d90613356565b80601f0160208091040260200160405190810160405280929190818152602001828054610b3990613356565b8015610b865780601f10610b5b57610100808354040283529160200191610b86565b820191906000526020600020905b815481529060010190602001808311610b6957829003601f168201915b505050505081526020019060010190610aee565b505050508152602001600a82018054610bb290613356565b80601f0160208091040260200160405190810160405280929190818152602001828054610bde90613356565b8015610c2b5780601f10610c0057610100808354040283529160200191610c2b565b820191906000526020600020905b815481529060010190602001808311610c0e57829003601f168201915b50505050508152602001600b820160009054906101000a900460ff16151515158152602001600b820160019054906101000a900460ff16151515158152602001600b820160029054906101000a900460ff16151515158152505090508060a001518160c001511015915050919050565b7f000000000000000000000000000000000000000000000000000000000000000081565b6060600060025467ffffffffffffffff811115610cdf57610cde612c57565b5b604051908082528060200260200182016040528015610d0d5781602001602082028036833780820191505090505b50905060005b600254811015610d4e5780828281518110610d3157610d30613387565b5b60200260200101818152505080610d47906133e5565b9050610d13565b508091505090565b610d5e61232a565b6000610d698361218e565b9050610d7481612370565b60003403610dae576040517f1f2a200500000000000000000000000000000000000000000000000000000000815260040160405180910390fd5b34816006016000828254610dc2919061342d565b925050819055503373ffffffffffffffffffffffffffffffffffffffff16837f901b065a31fc52bd5e941b3972b3d5486d93792219884dcc03c9529a9c23560c344286604051610e14939291906134ab565b60405180910390a350610e256124da565b5050565b6000610e3361232a565b610e3b6124e3565b6000885103610e76576040517f2ef1310500000000000000000000000000000000000000000000000000000000815260040160405180910390fd5b60008503610eb0576040517f9b60eb4d00000000000000000000000000000000000000000000000000000000815260040160405180910390fd5b6007841080610ebf5750605a84115b15610ef6576040517f7616640100000000000000000000000000000000000000000000000000000000815260040160405180910390fd5b600060026000815480929190610f0b906133e5565b919050559050604051806101c001604052808281526020013373ffffffffffffffffffffffffffffffffffffffff1681526020018a81526020018981526020018881526020018781526020016000815260200142815260200186815260200185815260200184815260200160011515815260200160001515815260200160001515815250600360008381526020019081526020016000206000820151816000015560208201518160010160006101000a81548173ffffffffffffffffffffffffffffffffffffffff021916908373ffffffffffffffffffffffffffffffffffffffff1602179055506040820151816002019081611008919061368b565b50606082015181600301908161101e919061368b565b506080820151816004019081611034919061368b565b5060a0820151816005015560c0820151816006015560e08201518160070155610100820151816008015561012082015181600901908051906020019061107b929190612687565b5061014082015181600a019081611092919061368b565b5061016082015181600b0160006101000a81548160ff02191690831515021790555061018082015181600b0160016101000a81548160ff0219169083151502179055506101a082015181600b0160026101000a81548160ff021916908315150217905550905050600460003373ffffffffffffffffffffffffffffffffffffffff1673ffffffffffffffffffffffffffffffffffffffff1681526020019081526020016000208190806001815401808255809150506001900390600052602060002001600090919091909150553373ffffffffffffffffffffffffffffffffffffffff16817fdc26653af5b99b2da33e2ad69ee6600d9aeccc82b034501db4338309615ca2388b89896040516111aa9392919061375d565b60405180910390a3809150506111be6124da565b979650505050505050565b600080600084815260200190815260200160002060000160008373ffffffffffffffffffffffffffffffffffffffff1673ffffffffffffffffffffffffffffffffffffffff16815260200190815260200160002060009054906101000a900460ff16905092915050565b6000801b81565b6000806112468361218e565b604051806101c0016040529081600082015481526020016001820160009054906101000a900473ffffffffffffffffffffffffffffffffffffffff1673ffffffffffffffffffffffffffffffffffffffff1673ffffffffffffffffffffffffffffffffffffffff1681526020016002820180546112c290613356565b80601f01602080910402602001604051908101604052809291908181526020018280546112ee90613356565b801561133b5780601f106113105761010080835404028352916020019161133b565b820191906000526020600020905b81548152906001019060200180831161131e57829003601f168201915b5050505050815260200160038201805461135490613356565b80601f016020809104026020016040519081016040528092919081815260200182805461138090613356565b80156113cd5780601f106113a2576101008083540402835291602001916113cd565b820191906000526020600020905b8154815290600101906020018083116113b057829003601f168201915b505050505081526020016004820180546113e690613356565b80601f016020809104026020016040519081016040528092919081815260200182805461141290613356565b801561145f5780601f106114345761010080835404028352916020019161145f565b820191906000526020600020905b81548152906001019060200180831161144257829003601f168201915b505050505081526020016005820154815260200160068201548152602001600782015481526020016008820154815260200160098201805480602002602001604051908101604052809291908181526020016000905b828210156115615783829060005260206000200180546114d490613356565b80601f016020809104026020016040519081016040528092919081815260200182805461150090613356565b801561154d5780601f106115225761010080835404028352916020019161154d565b820191906000526020600020905b81548152906001019060200180831161153057829003601f168201915b5050505050815260200190600101906114b5565b505050508152602001600a8201805461157990613356565b80601f01602080910402602001604051908101604052809291908181526020018280546115a590613356565b80156115f25780601f106115c7576101008083540402835291602001916115f2565b820191906000526020600020905b8154815290600101906020018083116115d557829003601f168201915b50505050508152602001600b820160009054906101000a900460ff16151515158152602001600b820160019054906101000a900460ff16151515158152602001600b820160029054906101000a900460ff161515151581525050905062015180816101000151611662919061379b565b8160e00151611671919061342d565b421015915050919050565b611684611fd3565b600061168f8361218e565b90508181600b0160016101000a81548160ff0219169083151502179055506116b9826006856121e5565b827fe392f74bd87ead5a415ab135c76df56a311fdcdc4767a7c70f95183c398ffba1836040516116e991906128a0565b60405180910390a2505050565b6116ff82610606565b61170881611dd4565b6117128383611ee1565b50505050565b6117206126e0565b6117298261218e565b604051806101c0016040529081600082015481526020016001820160009054906101000a900473ffffffffffffffffffffffffffffffffffffffff1673ffffffffffffffffffffffffffffffffffffffff1673ffffffffffffffffffffffffffffffffffffffff1681526020016002820180546117a590613356565b80601f01602080910402602001604051908101604052809291908181526020018280546117d190613356565b801561181e5780601f106117f35761010080835404028352916020019161181e565b820191906000526020600020905b81548152906001019060200180831161180157829003601f168201915b5050505050815260200160038201805461183790613356565b80601f016020809104026020016040519081016040528092919081815260200182805461186390613356565b80156118b05780601f10611885576101008083540402835291602001916118b0565b820191906000526020600020905b81548152906001019060200180831161189357829003601f168201915b505050505081526020016004820180546118c990613356565b80601f01602080910402602001604051908101604052809291908181526020018280546118f590613356565b80156119425780601f1061191757610100808354040283529160200191611942565b820191906000526020600020905b81548152906001019060200180831161192557829003601f168201915b505050505081526020016005820154815260200160068201548152602001600782015481526020016008820154815260200160098201805480602002602001604051908101604052809291908181526020016000905b82821015611a445783829060005260206000200180546119b790613356565b80601f01602080910402602001604051908101604052809291908181526020018280546119e390613356565b8015611a305780601f10611a0557610100808354040283529160200191611a30565b820191906000526020600020905b815481529060010190602001808311611a1357829003601f168201915b505050505081526020019060010190611998565b505050508152602001600a82018054611a5c90613356565b80601f0160208091040260200160405190810160405280929190818152602001828054611a8890613356565b8015611ad55780601f10611aaa57610100808354040283529160200191611ad5565b820191906000526020600020905b815481529060010190602001808311611ab857829003601f168201915b50505050508152602001600b820160009054906101000a900460ff16151515158152602001600b820160019054906101000a900460ff16151515158152602001600b820160029054906101000a900460ff1615151515815250509050919050565b611b3e61232a565b6000611b498361218e565b9050611b54816125aa565b611b5d81612370565b47821115611b97576040517f356680b700000000000000000000000000000000000000000000000000000000815260040160405180910390fd5b600081600b0160006101000a81548160ff02191690831515021790555060008160010160009054906101000a900473ffffffffffffffffffffffffffffffffffffffff1673ffffffffffffffffffffffffffffffffffffffff1683604051611bfe9061380e565b60006040518083038185875af1925050503d8060008114611c3b576040519150601f19603f3d011682016040523d82523d6000602084013e611c40565b606091505b5050905080611c7b576040517f750b219c00000000000000000000000000000000000000000000000000000000815260040160405180910390fd5b8160010160009054906101000a900473ffffffffffffffffffffffffffffffffffffffff1673ffffffffffffffffffffffffffffffffffffffff16847ff440aec6b52895984d061d622e6edeba6210f7c3e059be920663140c084560d785604051611ce69190613001565b60405180910390a35050611cf86124da565b5050565b6000611d078361218e565b9050611d11611fd3565b8181600b0160006101000a81548160ff021916908315150217905550827f33641491749634f1bb4cfb02728199b749f89fca34cc54faf7e74bbb8491088583604051611d5d91906128a0565b60405180910390a2505050565b60007f01ffc9a7000000000000000000000000000000000000000000000000000000007bffffffffffffffffffffffffffffffffffffffffffffffffffffffff1916827bffffffffffffffffffffffffffffffffffffffffffffffffffffffff1916149050919050565b611de581611de0611ed9565b612636565b50565b6000611df483836111c9565b611ece57600160008085815260200190815260200160002060000160008473ffffffffffffffffffffffffffffffffffffffff1673ffffffffffffffffffffffffffffffffffffffff16815260200190815260200160002060006101000a81548160ff021916908315150217905550611e6b611ed9565b73ffffffffffffffffffffffffffffffffffffffff168273ffffffffffffffffffffffffffffffffffffffff16847f2f8788117e7eff1d82e926ec794901d17c78024a50270940304540a733656f0d60405160405180910390a460019050611ed3565b600090505b92915050565b600033905090565b6000611eed83836111c9565b15611fc857600080600085815260200190815260200160002060000160008473ffffffffffffffffffffffffffffffffffffffff1673ffffffffffffffffffffffffffffffffffffffff16815260200190815260200160002060006101000a81548160ff021916908315150217905550611f65611ed9565b73ffffffffffffffffffffffffffffffffffffffff168273ffffffffffffffffffffffffffffffffffffffff16847ff6391f5c32d9c69d2a47ea670b442974b53935d1edc7fd64eb21e047a839171b60405160405180910390a460019050611fcd565b600090505b92915050565b7f000000000000000000000000000000000000000000000000000000000000000073ffffffffffffffffffffffffffffffffffffffff166391d148547f0ce23c3e399818cfee81a7ab0880f714e53d7672b08df0fa62f2843416e1ea09336040518363ffffffff1660e01b815260040161204e929190613832565b602060405180830381865afa15801561206b573d6000803e3d6000fd5b505050506040513d601f19601f8201168201806040525081019061208f9190613870565b15801561215557507f000000000000000000000000000000000000000000000000000000000000000073ffffffffffffffffffffffffffffffffffffffff166391d148547fa49807205ce4d355092ef5a8a18f56e8913cf4a201fbe287825b095693c21775336040518363ffffffff1660e01b8152600401612112929190613832565b602060405180830381865afa15801561212f573d6000803e3d6000fd5b505050506040513d601f19601f820116820180604052508101906121539190613870565b155b1561218c576040517f2466355600000000000000000000000000000000000000000000000000000000815260040160405180910390fd5b565b600060025482106121cb576040517fbfdaf6ba00000000000000000000000000000000000000000000000000000000815260040160405180910390fd5b600360008381526020019081526020016000209050919050565b82156122635760005b8280549050811015612235578183828154811061220e5761220d613387565b5b9060005260206000200154036122245750612325565b8061222e906133e5565b90506121ee565b5081819080600181540180825580915050600190039060005260206000200160009091909190915055612324565b60005b8280549050811015612322578183828154811061228657612285613387565b5b9060005260206000200154036123115782600184805490506122a8919061389d565b815481106122b9576122b8613387565b5b90600052602060002001548382815481106122d7576122d6613387565b5b9060005260206000200181905550828054806122f6576122f56138d1565b5b60019003818190600052602060002001600090559055612322565b8061231b906133e5565b9050612266565b505b5b505050565b600260015403612366576040517f3ee5aeb500000000000000000000000000000000000000000000000000000000815260040160405180910390fd5b6002600181905550565b80600b0160009054906101000a900460ff166123b8576040517f952ce6dd00000000000000000000000000000000000000000000000000000000815260040160405180910390fd5b7f000000000000000000000000000000000000000000000000000000000000000073ffffffffffffffffffffffffffffffffffffffff166322f3e2d46040518163ffffffff1660e01b8152600401602060405180830381865afa158015612423573d6000803e3d6000fd5b505050506040513d601f19601f820116820180604052508101906124479190613870565b61247d576040517f40a3745b00000000000000000000000000000000000000000000000000000000815260040160405180910390fd5b620151808160080154612490919061379b565b816007015461249f919061342d565b42106124d7576040517f553ae05400000000000000000000000000000000000000000000000000000000815260040160405180910390fd5b50565b60018081905550565b7f000000000000000000000000000000000000000000000000000000000000000073ffffffffffffffffffffffffffffffffffffffff166322f3e2d46040518163ffffffff1660e01b8152600401602060405180830381865afa15801561254e573d6000803e3d6000fd5b505050506040513d601f19601f820116820180604052508101906125729190613870565b6125a8576040517f40a3745b00000000000000000000000000000000000000000000000000000000815260040160405180910390fd5b565b8060010160009054906101000a900473ffffffffffffffffffffffffffffffffffffffff1673ffffffffffffffffffffffffffffffffffffffff163373ffffffffffffffffffffffffffffffffffffffff1614612633576040517f30cd747100000000000000000000000000000000000000000000000000000000815260040160405180910390fd5b50565b61264082826111c9565b6126835780826040517fe2517d3f00000000000000000000000000000000000000000000000000000000815260040161267a929190613900565b60405180910390fd5b5050565b8280548282559060005260206000209081019282156126cf579160200282015b828111156126ce5782518290816126be919061368b565b50916020019190600101906126a7565b5b5090506126dc919061276b565b5090565b604051806101c0016040528060008152602001600073ffffffffffffffffffffffffffffffffffffffff1681526020016060815260200160608152602001606081526020016000815260200160008152602001600081526020016000815260200160608152602001606081526020016000151581526020016000151581526020016000151581525090565b5b8082111561278b5760008181612782919061278f565b5060010161276c565b5090565b50805461279b90613356565b6000825580601f106127ad57506127cc565b601f0160209004906000526020600020908101906127cb91906127cf565b5b50565b5b808211156127e85760008160009055506001016127d0565b5090565b6000604051905090565b600080fd5b600080fd5b60007fffffffff0000000000000000000000000000000000000000000000000000000082169050919050565b61283581612800565b811461284057600080fd5b50565b6000813590506128528161282c565b92915050565b60006020828403121561286e5761286d6127f6565b5b600061287c84828501612843565b91505092915050565b60008115159050919050565b61289a81612885565b82525050565b60006020820190506128b56000830184612891565b92915050565b600081519050919050565b600082825260208201905092915050565b6000819050602082019050919050565b6000819050919050565b6128fa816128e7565b82525050565b600061290c83836128f1565b60208301905092915050565b6000602082019050919050565b6000612930826128bb565b61293a81856128c6565b9350612945836128d7565b8060005b8381101561297657815161295d8882612900565b975061296883612918565b925050600181019050612949565b5085935050505092915050565b6000602082019050818103600083015261299d8184612925565b905092915050565b6000819050919050565b6129b8816129a5565b81146129c357600080fd5b50565b6000813590506129d5816129af565b92915050565b6000602082840312156129f1576129f06127f6565b5b60006129ff848285016129c6565b91505092915050565b612a11816129a5565b82525050565b6000602082019050612a2c6000830184612a08565b92915050565b600073ffffffffffffffffffffffffffffffffffffffff82169050919050565b6000612a5d82612a32565b9050919050565b612a6d81612a52565b8114612a7857600080fd5b50565b600081359050612a8a81612a64565b92915050565b60008060408385031215612aa757612aa66127f6565b5b6000612ab5858286016129c6565b9250506020612ac685828601612a7b565b9150509250929050565b612ad9816128e7565b8114612ae457600080fd5b50565b600081359050612af681612ad0565b92915050565b612b0581612885565b8114612b1057600080fd5b50565b600081359050612b2281612afc565b92915050565b60008060408385031215612b3f57612b3e6127f6565b5b6000612b4d85828601612ae7565b9250506020612b5e85828601612b13565b9150509250929050565b600060208284031215612b7e57612b7d6127f6565b5b6000612b8c84828501612a7b565b91505092915050565b600060208284031215612bab57612baa6127f6565b5b6000612bb984828501612ae7565b91505092915050565b6000819050919050565b6000612be7612be2612bdd84612a32565b612bc2565b612a32565b9050919050565b6000612bf982612bcc565b9050919050565b6000612c0b82612bee565b9050919050565b612c1b81612c00565b82525050565b6000602082019050612c366000830184612c12565b92915050565b600080fd5b600080fd5b6000601f19601f8301169050919050565b7f4e487b7100000000000000000000000000000000000000000000000000000000600052604160045260246000fd5b612c8f82612c46565b810181811067ffffffffffffffff82111715612cae57612cad612c57565b5b80604052505050565b6000612cc16127ec565b9050612ccd8282612c86565b919050565b600067ffffffffffffffff821115612ced57612cec612c57565b5b612cf682612c46565b9050602081019050919050565b82818337600083830152505050565b6000612d25612d2084612cd2565b612cb7565b905082815260208101848484011115612d4157612d40612c41565b5b612d4c848285612d03565b509392505050565b600082601f830112612d6957612d68612c3c565b5b8135612d79848260208601612d12565b91505092915050565b60008060408385031215612d9957612d986127f6565b5b6000612da785828601612ae7565b925050602083013567ffffffffffffffff811115612dc857612dc76127fb565b5b612dd485828601612d54565b9150509250929050565b600067ffffffffffffffff821115612df957612df8612c57565b5b602082029050602081019050919050565b600080fd5b6000612e22612e1d84612dde565b612cb7565b90508083825260208201905060208402830185811115612e4557612e44612e0a565b5b835b81811015612e8c57803567ffffffffffffffff811115612e6a57612e69612c3c565b5b808601612e778982612d54565b85526020850194505050602081019050612e47565b5050509392505050565b600082601f830112612eab57612eaa612c3c565b5b8135612ebb848260208601612e0f565b91505092915050565b600080600080600080600060e0888a031215612ee357612ee26127f6565b5b600088013567ffffffffffffffff811115612f0157612f006127fb565b5b612f0d8a828b01612d54565b975050602088013567ffffffffffffffff811115612f2e57612f2d6127fb565b5b612f3a8a828b01612d54565b965050604088013567ffffffffffffffff811115612f5b57612f5a6127fb565b5b612f678a828b01612d54565b9550506060612f788a828b01612ae7565b9450506080612f898a828b01612ae7565b93505060a088013567ffffffffffffffff811115612faa57612fa96127fb565b5b612fb68a828b01612e96565b92505060c088013567ffffffffffffffff811115612fd757612fd66127fb565b5b612fe38a828b01612d54565b91505092959891949750929550565b612ffb816128e7565b82525050565b60006020820190506130166000830184612ff2565b92915050565b61302581612a52565b82525050565b600081519050919050565b600082825260208201905092915050565b60005b8381101561306557808201518184015260208101905061304a565b60008484015250505050565b600061307c8261302b565b6130868185613036565b9350613096818560208601613047565b61309f81612c46565b840191505092915050565b600081519050919050565b600082825260208201905092915050565b6000819050602082019050919050565b60006130e28383613071565b905092915050565b6000602082019050919050565b6000613102826130aa565b61310c81856130b5565b93508360208202850161311e856130c6565b8060005b8581101561315a578484038952815161313b85826130d6565b9450613146836130ea565b925060208a01995050600181019050613122565b50829750879550505050505092915050565b61317581612885565b82525050565b60006101c08301600083015161319460008601826128f1565b5060208301516131a7602086018261301c565b50604083015184820360408601526131bf8282613071565b915050606083015184820360608601526131d98282613071565b915050608083015184820360808601526131f38282613071565b91505060a083015161320860a08601826128f1565b5060c083015161321b60c08601826128f1565b5060e083015161322e60e08601826128f1565b506101008301516132436101008601826128f1565b5061012083015184820361012086015261325d82826130f7565b9150506101408301518482036101408601526132798282613071565b91505061016083015161329061016086018261316c565b506101808301516132a561018086018261316c565b506101a08301516132ba6101a086018261316c565b508091505092915050565b600060208201905081810360008301526132df818461317b565b905092915050565b600080604083850312156132fe576132fd6127f6565b5b600061330c85828601612ae7565b925050602061331d85828601612ae7565b9150509250929050565b7f4e487b7100000000000000000000000000000000000000000000000000000000600052602260045260246000fd5b6000600282049050600182168061336e57607f821691505b60208210810361338157613380613327565b5b50919050565b7f4e487b7100000000000000000000000000000000000000000000000000000000600052603260045260246000fd5b7f4e487b7100000000000000000000000000000000000000000000000000000000600052601160045260246000fd5b60006133f0826128e7565b91507fffffffffffffffffffffffffffffffffffffffffffffffffffffffffffffffff8203613422576134216133b6565b5b600182019050919050565b6000613438826128e7565b9150613443836128e7565b925082820190508082111561345b5761345a6133b6565b5b92915050565b600082825260208201905092915050565b600061347d8261302b565b6134878185613461565b9350613497818560208601613047565b6134a081612c46565b840191505092915050565b60006060820190506134c06000830186612ff2565b6134cd6020830185612ff2565b81810360408301526134df8184613472565b9050949350505050565b60008190508160005260206000209050919050565b60006020601f8301049050919050565b600082821b905092915050565b60006008830261354b7fffffffffffffffffffffffffffffffffffffffffffffffffffffffffffffffff8261350e565b613555868361350e565b95508019841693508086168417925050509392505050565b600061358861358361357e846128e7565b612bc2565b6128e7565b9050919050565b6000819050919050565b6135a28361356d565b6135b66135ae8261358f565b84845461351b565b825550505050565b600090565b6135cb6135be565b6135d6818484613599565b505050565b5b818110156135fa576135ef6000826135c3565b6001810190506135dc565b5050565b601f82111561363f57613610816134e9565b613619846134fe565b81016020851015613628578190505b61363c613634856134fe565b8301826135db565b50505b505050565b600082821c905092915050565b600061366260001984600802613644565b1980831691505092915050565b600061367b8383613651565b9150826002028217905092915050565b6136948261302b565b67ffffffffffffffff8111156136ad576136ac612c57565b5b6136b78254613356565b6136c28282856135fe565b600060209050601f8311600181146136f557600084156136e3578287015190505b6136ed858261366f565b865550613755565b601f198416613703866134e9565b60005b8281101561372b57848901518255600182019150602085019450602081019050613706565b868310156137485784890151613744601f891682613651565b8355505b6001600288020188555050505b505050505050565b600060608201905081810360008301526137778186613472565b90506137866020830185612ff2565b6137936040830184612ff2565b949350505050565b60006137a6826128e7565b91506137b1836128e7565b92508282026137bf816128e7565b915082820484148315176137d6576137d56133b6565b5b5092915050565b600081905092915050565b50565b60006137f86000836137dd565b9150613803826137e8565b600082019050919050565b6000613819826137eb565b9150819050919050565b61382c81612a52565b82525050565b60006040820190506138476000830185612a08565b6138546020830184613823565b9392505050565b60008151905061386a81612afc565b92915050565b600060208284031215613886576138856127f6565b5b60006138948482850161385b565b91505092915050565b60006138a8826128e7565b91506138b3836128e7565b92508282039050818111156138cb576138ca6133b6565b5b92915050565b7f4e487b7100000000000000000000000000000000000000000000000000000000600052603160045260246000fd5b60006040820190506139156000830185613823565b6139226020830184612a08565b939250505056fea26469706673582212209344ac389142a43b604e6380b61eddc29d0781e313ce97595f89be708afedc4e64736f6c63430008140033",
  "linkReferences": {},
  "deployedLinkReferences": {}
}