{
  "_format": "hh-sol-artifact-1",
  "contractName": "DonationManager",
  "sourceName": "contracts/DonationManager.sol",
  "abi": [
    {
      "inputs": [
        {
          "internalType": "address",
          "name": "_registryAddress",
          "type": "address"
        }
      ],
      "stateMutability": "nonpayable",
      "type": "constructor"
    },
    {
      "inputs": [],
      "name": "AccessControlBadConfirmation",
      "type": "error"
    },
    {
      "inputs": [
        {
          "internalType": "address",
          "name": "account",
          "type": "address"
        },
        {
          "internalType": "bytes32",
          "name": "neededRole",
          "type": "bytes32"
        }
      ],
      "name": "AccessControlUnauthorizedAccount",
      "type": "error"
    },
    {
      "inputs": [],
      "name": "CampaignManagerNotSet",
      "type": "error"
    },
    {
      "inputs": [],
      "name": "CampaignNotActive",
      "type": "error"
    },
    {
      "inputs": [],
      "name": "CampaignNotVerified",
      "type": "error"
    },
    {
      "inputs": [],
      "name": "DonationAmountZero",
      "type": "error"
    },
    {
      "inputs": [],
      "name": "DonationDoesNotExist",
      "type": "error"
    },
    {
      "inputs": [],
      "name": "DonationFailed",
      "type": "error"
    },
    {
      "inputs": [],
      "name": "InvalidRegistryAddress",
      "type": "error"
    },
    {
      "inputs": [],
      "name": "PlatformPaused",
      "type": "error"
    },
    {
      "inputs": [],
      "name": "ReentrancyGuardReentrantCall",
      "type": "error"
    },
    {
      "anonymous": false,
      "inputs": [
        {
          "indexed": true,
          "internalType": "uint256",
          "name": "donationId",
          "type": "uint256"
        },
        {
          "indexed": true,
          "internalType": "address",
          "name": "donor",
          "type": "address"
        },
        {
          "indexed": true,
          "internalType": "uint256",
          "name": "campaignId",
          "type": "uint256"
        },
        {
          "indexed": false,
          "internalType": "uint256",
          "name": "amount",
          "type": "uint256"
        },
        {
          "indexed": false,
          "internalType": "string",
          "name": "nftId",
          "type": "string"
        },
        {
          "indexed": false,
          "internalType": "string",
          "name": "tier",
          "type": "string"
        }
      ],
      "name": "DonationProcessed",
      "type": "event"
    },
    {
      "anonymous": false,
      "inputs": [
        {
          "indexed": true,
          "internalType": "bytes32",
          "name": "role",
          "type": "bytes32"
        },
        {
          "indexed": true,
          "internalType": "bytes32",
          "name": "previousAdminRole",
          "type": "bytes32"
        },
        {
          "indexed": true,
          "internalType": "bytes32",
          "name": "newAdminRole",
          "type": "bytes32"
        }
      ],
      "name": "RoleAdminChanged",
      "type": "event"
    },
    {
      "anonymous": false,
      "inputs": [
        {
          "indexed": true,
          "internalType": "bytes32",
          "name": "role",
          "type": "bytes32"
        },
        {
          "indexed": true,
          "internalType": "address",
          "name": "account",
          "type": "address"
        },
        {
          "indexed": true,
          "internalType": "address",
          "name": "sender",
          "type": "address"
        }
      ],
      "name": "RoleGranted",
      "type": "event"
    },
    {
      "anonymous": false,
      "inputs": [
        {
          "indexed": true,
          "internalType": "bytes32",
          "name": "role",
          "type": "bytes32"
        },
        {
          "indexed": true,
          "internalType": "address",
          "name": "account",
          "type": "address"
        },
        {
          "indexed": true,
          "internalType": "address",
          "name": "sender",
          "type": "address"
        }
      ],
      "name": "RoleRevoked",
      "type": "event"
    },
    {
      "inputs": [],
      "name": "DEFAULT_ADMIN_ROLE",
      "outputs": [
        {
          "internalType": "bytes32",
          "name": "",
          "type": "bytes32"
        }
      ],
      "stateMutability": "view",
      "type": "function"
    },
    {
      "inputs": [
        {
          "internalType": "uint256",
          "name": "",
          "type": "uint256"
        },
        {
          "internalType": "uint256",
          "name": "",
          "type": "uint256"
        }
      ],
      "name": "campaignDonations",
      "outputs": [
        {
          "internalType": "uint256",
          "name": "",
          "type": "uint256"
        }
      ],
      "stateMutability": "view",
      "type": "function"
    },
    {
      "inputs": [
        {
          "internalType": "uint256",
          "name": "",
          "type": "uint256"
        }
      ],
      "name": "donations",
      "outputs": [
        {
          "internalType": "uint256",
          "name": "id",
          "type": "uint256"
        },
        {
          "internalType": "address",
          "name": "donor",
          "type": "address"
        },
        {
          "internalType": "address",
          "name": "campaignAddress",
          "type": "address"
        },
        {
          "internalType": "uint256",
          "name": "campaignId",
          "type": "uint256"
        },
        {
          "internalType": "uint256",
          "name": "amount",
          "type": "uint256"
        },
        {
          "internalType": "uint256",
          "name": "timestamp",
          "type": "uint256"
        },
        {
          "internalType": "string",
          "name": "nftId",
          "type": "string"
        },
        {
          "internalType": "string",
          "name": "tier",
          "type": "string"
        }
      ],
      "stateMutability": "view",
      "type": "function"
    },
    {
      "inputs": [
        {
          "internalType": "address",
          "name": "",
          "type": "address"
        },
        {
          "internalType": "uint256",
          "name": "",
          "type": "uint256"
        }
      ],
      "name": "donorDonations",
      "outputs": [
        {
          "internalType": "uint256",
          "name": "",
          "type": "uint256"
        }
      ],
      "stateMutability": "view",
      "type": "function"
    },
    {
      "inputs": [],
      "name": "getDonationCount",
      "outputs": [
        {
          "internalType": "uint256",
          "name": "",
          "type": "uint256"
        }
      ],
      "stateMutability": "view",
      "type": "function"
    },
    {
      "inputs": [
        {
          "internalType": "uint256",
          "name": "_donationId",
          "type": "uint256"
        }
      ],
      "name": "getDonationDetails",
      "outputs": [
        {
          "components": [
            {
              "internalType": "uint256",
              "name": "id",
              "type": "uint256"
            },
            {
              "internalType": "address",
              "name": "donor",
              "type": "address"
            },
            {
              "internalType": "address",
              "name": "campaignAddress",
              "type": "address"
            },
            {
              "internalType": "uint256",
              "name": "campaignId",
              "type": "uint256"
            },
            {
              "internalType": "uint256",
              "name": "amount",
              "type": "uint256"
            },
            {
              "internalType": "uint256",
              "name": "timestamp",
              "type": "uint256"
            },
            {
              "internalType": "string",
              "name": "nftId",
              "type": "string"
            },
            {
              "internalType": "string",
              "name": "tier",
              "type": "string"
            }
          ],
          "internalType": "struct DonationManager.DonationRecord",
          "name": "",
          "type": "tuple"
        }
      ],
      "stateMutability": "view",
      "type": "function"
    },
    {
      "inputs": [
        {
          "internalType": "uint256",
          "name": "_campaignId",
          "type": "uint256"
        }
      ],
      "name": "getDonationsByCampaign",
      "outputs": [
        {
          "internalType": "uint256[]",
          "name": "",
          "type": "uint256[]"
        }
      ],
      "stateMutability": "view",
      "type": "function"
    },
    {
      "inputs": [
        {
          "internalType": "address",
          "name": "_donor",
          "type": "address"
        }
      ],
      "name": "getDonationsByDonor",
      "outputs": [
        {
          "internalType": "uint256[]",
          "name": "",
          "type": "uint256[]"
        }
      ],
      "stateMutability": "view",
      "type": "function"
    },
    {
      "inputs": [
        {
          "internalType": "uint256",
          "name": "_count",
          "type": "uint256"
        }
      ],
      "name": "getRecentDonations",
      "outputs": [
        {
          "components": [
            {
              "internalType": "uint256",
              "name": "id",
              "type": "uint256"
            },
            {
              "internalType": "address",
              "name": "donor",
              "type": "address"
            },
            {
              "internalType": "address",
              "name": "campaignAddress",
              "type": "address"
            },
            {
              "internalType": "uint256",
              "name": "campaignId",
              "type": "uint256"
            },
            {
              "internalType": "uint256",
              "name": "amount",
              "type": "uint256"
            },
            {
              "internalType": "uint256",
              "name": "timestamp",
              "type": "uint256"
            },
            {
              "internalType": "string",
              "name": "nftId",
              "type": "string"
            },
            {
              "internalType": "string",
              "name": "tier",
              "type": "string"
            }
          ],
          "internalType": "struct DonationManager.DonationRecord[]",
          "name": "",
          "type": "tuple[]"
        }
      ],
      "stateMutability": "view",
      "type": "function"
    },
    {
      "inputs": [
        {
          "internalType": "bytes32",
          "name": "role",
          "type": "bytes32"
        }
      ],
      "name": "getRoleAdmin",
      "outputs": [
        {
          "internalType": "bytes32",
          "name": "",
          "type": "bytes32"
        }
      ],
      "stateMutability": "view",
      "type": "function"
    },
    {
      "inputs": [
        {
          "internalType": "bytes32",
          "name": "role",
          "type": "bytes32"
        },
        {
          "internalType": "address",
          "name": "account",
          "type": "address"
        }
      ],
      "name": "grantRole",
      "outputs": [],
      "stateMutability": "nonpayable",
      "type": "function"
    },
    {
      "inputs": [
        {
          "internalType": "bytes32",
          "name": "role",
          "type": "bytes32"
        },
        {
          "internalType": "address",
          "name": "account",
          "type": "address"
        }
      ],
      "name": "hasRole",
      "outputs": [
        {
          "internalType": "bool",
          "name": "",
          "type": "bool"
        }
      ],
      "stateMutability": "view",
      "type": "function"
    },
    {
      "inputs": [],
      "name": "nftReward",
      "outputs": [
        {
          "internalType": "contract NFTReward",
          "name": "",
          "type": "address"
        }
      ],
      "stateMutability": "view",
      "type": "function"
    },
    {
      "inputs": [
        {
          "internalType": "uint256",
          "name": "_campaignId",
          "type": "uint256"
        },
        {
          "internalType": "string",
          "name": "_tokenURI",
          "type": "string"
        }
      ],
      "name": "processDonation",
      "outputs": [
        {
          "internalType": "uint256",
          "name": "",
          "type": "uint256"
        }
      ],
      "stateMutability": "payable",
      "type": "function"
    },
    {
      "inputs": [],
      "name": "registry",
      "outputs": [
        {
          "internalType": "contract BitGiveRegistry",
          "name": "",
          "type": "address"
        }
      ],
      "stateMutability": "view",
      "type": "function"
    },
    {
      "inputs": [
        {
          "internalType": "bytes32",
          "name": "role",
          "type": "bytes32"
        },
        {
          "internalType": "address",
          "name": "callerConfirmation",
          "type": "address"
        }
      ],
      "name": "renounceRole",
      "outputs": [],
      "stateMutability": "nonpayable",
      "type": "function"
    },
    {
      "inputs": [
        {
          "internalType": "bytes32",
          "name": "role",
          "type": "bytes32"
        },
        {
          "internalType": "address",
          "name": "account",
          "type": "address"
        }
      ],
      "name": "revokeRole",
      "outputs": [],
      "stateMutability": "nonpayable",
      "type": "function"
    },
    {
      "inputs": [],
      "name": "setNFTRewardAddress",
      "outputs": [],
      "stateMutability": "nonpayable",
      "type": "function"
    },
    {
      "inputs": [
        {
          "internalType": "bytes4",
          "name": "interfaceId",
          "type": "bytes4"
        }
      ],
      "name": "supportsInterface",
      "outputs": [
        {
          "internalType": "bool",
          "name": "",
          "type": "bool"
        }
      ],
      "stateMutability": "view",
      "type": "function"
    }
  ],
  "bytecode": "0x60806040523480156200001157600080fd5b506040516200356f3803806200356f8339818101604052810190620000379190620003b6565b60018081905550600073ffffffffffffffffffffffffffffffffffffffff168173ffffffffffffffffffffffffffffffffffffffff1603620000a5576040517f7bfd2e8300000000000000000000000000000000000000000000000000000000815260040160405180910390fd5b80600260006101000a81548173ffffffffffffffffffffffffffffffffffffffff021916908373ffffffffffffffffffffffffffffffffffffffff160217905550600260009054906101000a900473ffffffffffffffffffffffffffffffffffffffff1673ffffffffffffffffffffffffffffffffffffffff1663536c01306040518163ffffffff1660e01b8152600401602060405180830381865afa15801562000154573d6000803e3d6000fd5b505050506040513d601f19601f820116820180604052508101906200017a9190620003b6565b600360006101000a81548173ffffffffffffffffffffffffffffffffffffffff021916908373ffffffffffffffffffffffffffffffffffffffff160217905550620001cf6000801b33620001d760201b60201c565b5050620003e8565b6000620001eb8383620002da60201b60201c565b620002cf57600160008085815260200190815260200160002060000160008473ffffffffffffffffffffffffffffffffffffffff1673ffffffffffffffffffffffffffffffffffffffff16815260200190815260200160002060006101000a81548160ff0219169083151502179055506200026b6200034460201b60201c565b73ffffffffffffffffffffffffffffffffffffffff168273ffffffffffffffffffffffffffffffffffffffff16847f2f8788117e7eff1d82e926ec794901d17c78024a50270940304540a733656f0d60405160405180910390a460019050620002d4565b600090505b92915050565b600080600084815260200190815260200160002060000160008373ffffffffffffffffffffffffffffffffffffffff1673ffffffffffffffffffffffffffffffffffffffff16815260200190815260200160002060009054906101000a900460ff16905092915050565b600033905090565b600080fd5b600073ffffffffffffffffffffffffffffffffffffffff82169050919050565b60006200037e8262000351565b9050919050565b620003908162000371565b81146200039c57600080fd5b50565b600081519050620003b08162000385565b92915050565b600060208284031215620003cf57620003ce6200034c565b5b6000620003df848285016200039f565b91505092915050565b61317780620003f86000396000f3fe6080604052600436106101135760003560e01c80637b103999116100a0578063df8f7ecd11610064578063df8f7ecd146103fc578063e55a62a814610413578063eb564d351461043e578063ec6208c91461047b578063f8626af8146104ab57610113565b80637b1039991461031557806391d1485414610340578063a217fddf1461037d578063beb4dc30146103a8578063d547741f146103d357610113565b80632f2ff15d116100e75780632f2ff15d1461020c57806336568abe146102355780633d0d30861461025e5780634395e1bf1461029b57806370879ff7146102d857610113565b80623062ca1461011857806301ffc9a714610155578063248a9ca3146101925780632da7b873146101cf575b600080fd5b34801561012457600080fd5b5061013f600480360381019061013a9190611cf6565b6104ef565b60405161014c9190611f7c565b60405180910390f35b34801561016157600080fd5b5061017c60048036038101906101779190611ff6565b6107d1565b604051610189919061203e565b60405180910390f35b34801561019e57600080fd5b506101b960048036038101906101b4919061208f565b61084b565b6040516101c691906120cb565b60405180910390f35b3480156101db57600080fd5b506101f660048036038101906101f19190611cf6565b61086a565b6040516102039190612195565b60405180910390f35b34801561021857600080fd5b50610233600480360381019061022e91906121e3565b6108d5565b005b34801561024157600080fd5b5061025c600480360381019061025791906121e3565b6108f7565b005b34801561026a57600080fd5b5061028560048036038101906102809190612223565b610972565b6040516102929190612195565b60405180910390f35b3480156102a757600080fd5b506102c260048036038101906102bd9190612250565b610a09565b6040516102cf919061229f565b60405180910390f35b3480156102e457600080fd5b506102ff60048036038101906102fa91906122ba565b610a3a565b60405161030c919061229f565b60405180910390f35b34801561032157600080fd5b5061032a610a6b565b6040516103379190612359565b60405180910390f35b34801561034c57600080fd5b50610367600480360381019061036291906121e3565b610a91565b604051610374919061203e565b60405180910390f35b34801561038957600080fd5b50610392610afb565b60405161039f91906120cb565b60405180910390f35b3480156103b457600080fd5b506103bd610b02565b6040516103ca9190612395565b60405180910390f35b3480156103df57600080fd5b506103fa60048036038101906103f591906121e3565b610b28565b005b34801561040857600080fd5b50610411610b4a565b005b34801561041f57600080fd5b50610428610c2b565b604051610435919061229f565b60405180910390f35b34801561044a57600080fd5b5061046560048036038101906104609190611cf6565b610c35565b6040516104729190612467565b60405180910390f35b610495600480360381019061049091906125be565b610e96565b6040516104a2919061229f565b60405180910390f35b3480156104b757600080fd5b506104d260048036038101906104cd9190611cf6565b6116d1565b6040516104e6989796959493929190612673565b60405180910390f35b60606000600454905080831115610504578092505b60008367ffffffffffffffff8111156105205761051f612493565b5b60405190808252806020026020018201604052801561055957816020015b610546611c3b565b81526020019060019003908161053e5790505b50905060005b848110156107c6576005600060018386610579919061272e565b610583919061272e565b815260200190815260200160002060405180610100016040529081600082015481526020016001820160009054906101000a900473ffffffffffffffffffffffffffffffffffffffff1673ffffffffffffffffffffffffffffffffffffffff1673ffffffffffffffffffffffffffffffffffffffff1681526020016002820160009054906101000a900473ffffffffffffffffffffffffffffffffffffffff1673ffffffffffffffffffffffffffffffffffffffff1673ffffffffffffffffffffffffffffffffffffffff16815260200160038201548152602001600482015481526020016005820154815260200160068201805461068190612791565b80601f01602080910402602001604051908101604052809291908181526020018280546106ad90612791565b80156106fa5780601f106106cf576101008083540402835291602001916106fa565b820191906000526020600020905b8154815290600101906020018083116106dd57829003601f168201915b5050505050815260200160078201805461071390612791565b80601f016020809104026020016040519081016040528092919081815260200182805461073f90612791565b801561078c5780601f106107615761010080835404028352916020019161078c565b820191906000526020600020905b81548152906001019060200180831161076f57829003601f168201915b5050505050815250508282815181106107a8576107a76127c2565b5b602002602001018190525080806107be906127f1565b91505061055f565b508092505050919050565b60007f7965db0b000000000000000000000000000000000000000000000000000000007bffffffffffffffffffffffffffffffffffffffffffffffffffffffff1916827bffffffffffffffffffffffffffffffffffffffffffffffffffffffff19161480610844575061084382611869565b5b9050919050565b6000806000838152602001908152602001600020600101549050919050565b6060600760008381526020019081526020016000208054806020026020016040519081016040528092919081815260200182805480156108c957602002820191906000526020600020905b8154815260200190600101908083116108b5575b50505050509050919050565b6108de8261084b565b6108e7816118d3565b6108f183836118e7565b50505050565b6108ff6119d8565b73ffffffffffffffffffffffffffffffffffffffff168173ffffffffffffffffffffffffffffffffffffffff1614610963576040517f6697b23200000000000000000000000000000000000000000000000000000000815260040160405180910390fd5b61096d82826119e0565b505050565b6060600660008373ffffffffffffffffffffffffffffffffffffffff1673ffffffffffffffffffffffffffffffffffffffff1681526020019081526020016000208054806020026020016040519081016040528092919081815260200182805480156109fd57602002820191906000526020600020905b8154815260200190600101908083116109e9575b50505050509050919050565b60066020528160005260406000208181548110610a2557600080fd5b90600052602060002001600091509150505481565b60076020528160005260406000208181548110610a5657600080fd5b90600052602060002001600091509150505481565b600260009054906101000a900473ffffffffffffffffffffffffffffffffffffffff1681565b600080600084815260200190815260200160002060000160008373ffffffffffffffffffffffffffffffffffffffff1673ffffffffffffffffffffffffffffffffffffffff16815260200190815260200160002060009054906101000a900460ff16905092915050565b6000801b81565b600360009054906101000a900473ffffffffffffffffffffffffffffffffffffffff1681565b610b318261084b565b610b3a816118d3565b610b4483836119e0565b50505050565b6000801b610b57816118d3565b600260009054906101000a900473ffffffffffffffffffffffffffffffffffffffff1673ffffffffffffffffffffffffffffffffffffffff1663536c01306040518163ffffffff1660e01b8152600401602060405180830381865afa158015610bc4573d6000803e3d6000fd5b505050506040513d601f19601f82011682018060405250810190610be8919061284e565b600360006101000a81548173ffffffffffffffffffffffffffffffffffffffff021916908373ffffffffffffffffffffffffffffffffffffffff16021790555050565b6000600454905090565b610c3d611c3b565b6004548210610c78576040517f7919226b00000000000000000000000000000000000000000000000000000000815260040160405180910390fd5b6005600083815260200190815260200160002060405180610100016040529081600082015481526020016001820160009054906101000a900473ffffffffffffffffffffffffffffffffffffffff1673ffffffffffffffffffffffffffffffffffffffff1673ffffffffffffffffffffffffffffffffffffffff1681526020016002820160009054906101000a900473ffffffffffffffffffffffffffffffffffffffff1673ffffffffffffffffffffffffffffffffffffffff1673ffffffffffffffffffffffffffffffffffffffff168152602001600382015481526020016004820154815260200160058201548152602001600682018054610d7b90612791565b80601f0160208091040260200160405190810160405280929190818152602001828054610da790612791565b8015610df45780601f10610dc957610100808354040283529160200191610df4565b820191906000526020600020905b815481529060010190602001808311610dd757829003601f168201915b50505050508152602001600782018054610e0d90612791565b80601f0160208091040260200160405190810160405280929190818152602001828054610e3990612791565b8015610e865780601f10610e5b57610100808354040283529160200191610e86565b820191906000526020600020905b815481529060010190602001808311610e6957829003601f168201915b5050505050815250509050919050565b6000610ea0611ad2565b610ea8611b18565b60003403610ee2576040517f0e0eb95600000000000000000000000000000000000000000000000000000000815260040160405180910390fd5b6000600260009054906101000a900473ffffffffffffffffffffffffffffffffffffffff1673ffffffffffffffffffffffffffffffffffffffff16633b917c306040518163ffffffff1660e01b8152600401602060405180830381865afa158015610f51573d6000803e3d6000fd5b505050506040513d601f19601f82011682018060405250810190610f75919061284e565b9050600073ffffffffffffffffffffffffffffffffffffffff168173ffffffffffffffffffffffffffffffffffffffff1603610fdd576040517f1b22593f00000000000000000000000000000000000000000000000000000000815260040160405180910390fd5b60008173ffffffffffffffffffffffffffffffffffffffff1663e38e2b82866040518263ffffffff1660e01b8152600401611018919061229f565b600060405180830381865afa158015611035573d6000803e3d6000fd5b505050506040513d6000823e3d601f19601f8201168201806040525081019061105e9190612bf6565b905080610180015161109c576040517f37cc7d7400000000000000000000000000000000000000000000000000000000815260040160405180910390fd5b8061016001516110d8576040517f433528b600000000000000000000000000000000000000000000000000000000815260040160405180910390fd5b6060662386f26fc100003410611125576040518060400160405280600481526020017f476f6c640000000000000000000000000000000000000000000000000000000081525090506111f6565b6611c37937e080003410611170576040518060400160405280600681526020017f53696c766572000000000000000000000000000000000000000000000000000081525090506111f5565b66038d7ea4c6800034106111bb576040518060400160405280600681526020017f42726f6e7a65000000000000000000000000000000000000000000000000000081525090506111f4565b6040518060400160405280600481526020017f4e6f6e650000000000000000000000000000000000000000000000000000000081525090505b5b5b600060405180602001604052806000815250905060405160200161121990612c96565b60405160208183030381529060405280519060200120826040516020016112409190612cdc565b604051602081830303815290604052805190602001201461130d57600360009054906101000a900473ffffffffffffffffffffffffffffffffffffffff1673ffffffffffffffffffffffffffffffffffffffff16635001f033338486604001518b8b6040518663ffffffff1660e01b81526004016112c2959493929190612cf3565b6000604051808303816000875af11580156112e1573d6000803e3d6000fd5b505050506040513d6000823e3d601f19601f8201168201806040525081019061130a9190612d5b565b90505b60008473ffffffffffffffffffffffffffffffffffffffff163485600001518460405160240161133e929190612da4565b6040516020818303038152906040527f8d59d1f1000000000000000000000000000000000000000000000000000000007bffffffffffffffffffffffffffffffffffffffffffffffffffffffff19166020820180517bffffffffffffffffffffffffffffffffffffffffffffffffffffffff83818316178352505050506040516113c89190612e1b565b60006040518083038185875af1925050503d8060008114611405576040519150601f19603f3d011682016040523d82523d6000602084013e61140a565b606091505b5050905080611445576040517f77f4312b00000000000000000000000000000000000000000000000000000000815260040160405180910390fd5b600060045490506004600081548092919061145f906127f1565b91905055506040518061010001604052808281526020013373ffffffffffffffffffffffffffffffffffffffff168152602001866020015173ffffffffffffffffffffffffffffffffffffffff1681526020018a815260200134815260200142815260200184815260200185815250600560008381526020019081526020016000206000820151816000015560208201518160010160006101000a81548173ffffffffffffffffffffffffffffffffffffffff021916908373ffffffffffffffffffffffffffffffffffffffff16021790555060408201518160020160006101000a81548173ffffffffffffffffffffffffffffffffffffffff021916908373ffffffffffffffffffffffffffffffffffffffff160217905550606082015181600301556080820151816004015560a0820151816005015560c08201518160060190816115ac9190612fd4565b5060e08201518160070190816115c29190612fd4565b50905050600660003373ffffffffffffffffffffffffffffffffffffffff1673ffffffffffffffffffffffffffffffffffffffff168152602001908152602001600020819080600181540180825580915050600190039060005260206000200160009091909190915055600760008a8152602001908152602001600020819080600181540180825580915050600190039060005260206000200160009091909190915055883373ffffffffffffffffffffffffffffffffffffffff16827f4616f566c9d9187042249e54fedbf89d44b01c5e71e93bdd7776049e37fa88a73487896040516116b2939291906130a6565b60405180910390a48096505050505050506116cb611be1565b92915050565b60056020528060005260406000206000915090508060000154908060010160009054906101000a900473ffffffffffffffffffffffffffffffffffffffff16908060020160009054906101000a900473ffffffffffffffffffffffffffffffffffffffff169080600301549080600401549080600501549080600601805461175890612791565b80601f016020809104026020016040519081016040528092919081815260200182805461178490612791565b80156117d15780601f106117a6576101008083540402835291602001916117d1565b820191906000526020600020905b8154815290600101906020018083116117b457829003601f168201915b5050505050908060070180546117e690612791565b80601f016020809104026020016040519081016040528092919081815260200182805461181290612791565b801561185f5780601f106118345761010080835404028352916020019161185f565b820191906000526020600020905b81548152906001019060200180831161184257829003601f168201915b5050505050905088565b60007f01ffc9a7000000000000000000000000000000000000000000000000000000007bffffffffffffffffffffffffffffffffffffffffffffffffffffffff1916827bffffffffffffffffffffffffffffffffffffffffffffffffffffffff1916149050919050565b6118e4816118df6119d8565b611bea565b50565b60006118f38383610a91565b6119cd57600160008085815260200190815260200160002060000160008473ffffffffffffffffffffffffffffffffffffffff1673ffffffffffffffffffffffffffffffffffffffff16815260200190815260200160002060006101000a81548160ff02191690831515021790555061196a6119d8565b73ffffffffffffffffffffffffffffffffffffffff168273ffffffffffffffffffffffffffffffffffffffff16847f2f8788117e7eff1d82e926ec794901d17c78024a50270940304540a733656f0d60405160405180910390a4600190506119d2565b600090505b92915050565b600033905090565b60006119ec8383610a91565b15611ac757600080600085815260200190815260200160002060000160008473ffffffffffffffffffffffffffffffffffffffff1673ffffffffffffffffffffffffffffffffffffffff16815260200190815260200160002060006101000a81548160ff021916908315150217905550611a646119d8565b73ffffffffffffffffffffffffffffffffffffffff168273ffffffffffffffffffffffffffffffffffffffff16847ff6391f5c32d9c69d2a47ea670b442974b53935d1edc7fd64eb21e047a839171b60405160405180910390a460019050611acc565b600090505b92915050565b600260015403611b0e576040517f3ee5aeb500000000000000000000000000000000000000000000000000000000815260040160405180910390fd5b6002600181905550565b600260009054906101000a900473ffffffffffffffffffffffffffffffffffffffff1673ffffffffffffffffffffffffffffffffffffffff166322f3e2d46040518163ffffffff1660e01b8152600401602060405180830381865afa158015611b85573d6000803e3d6000fd5b505050506040513d601f19601f82011682018060405250810190611ba991906130eb565b611bdf576040517f40a3745b00000000000000000000000000000000000000000000000000000000815260040160405180910390fd5b565b60018081905550565b611bf48282610a91565b611c375780826040517fe2517d3f000000000000000000000000000000000000000000000000000000008152600401611c2e929190613118565b60405180910390fd5b5050565b60405180610100016040528060008152602001600073ffffffffffffffffffffffffffffffffffffffff168152602001600073ffffffffffffffffffffffffffffffffffffffff16815260200160008152602001600081526020016000815260200160608152602001606081525090565b6000604051905090565b600080fd5b600080fd5b6000819050919050565b611cd381611cc0565b8114611cde57600080fd5b50565b600081359050611cf081611cca565b92915050565b600060208284031215611d0c57611d0b611cb6565b5b6000611d1a84828501611ce1565b91505092915050565b600081519050919050565b600082825260208201905092915050565b6000819050602082019050919050565b611d5881611cc0565b82525050565b600073ffffffffffffffffffffffffffffffffffffffff82169050919050565b6000611d8982611d5e565b9050919050565b611d9981611d7e565b82525050565b600081519050919050565b600082825260208201905092915050565b60005b83811015611dd9578082015181840152602081019050611dbe565b60008484015250505050565b6000601f19601f8301169050919050565b6000611e0182611d9f565b611e0b8185611daa565b9350611e1b818560208601611dbb565b611e2481611de5565b840191505092915050565b600061010083016000830151611e486000860182611d4f565b506020830151611e5b6020860182611d90565b506040830151611e6e6040860182611d90565b506060830151611e816060860182611d4f565b506080830151611e946080860182611d4f565b5060a0830151611ea760a0860182611d4f565b5060c083015184820360c0860152611ebf8282611df6565b91505060e083015184820360e0860152611ed98282611df6565b9150508091505092915050565b6000611ef28383611e2f565b905092915050565b6000602082019050919050565b6000611f1282611d23565b611f1c8185611d2e565b935083602082028501611f2e85611d3f565b8060005b85811015611f6a5784840389528151611f4b8582611ee6565b9450611f5683611efa565b925060208a01995050600181019050611f32565b50829750879550505050505092915050565b60006020820190508181036000830152611f968184611f07565b905092915050565b60007fffffffff0000000000000000000000000000000000000000000000000000000082169050919050565b611fd381611f9e565b8114611fde57600080fd5b50565b600081359050611ff081611fca565b92915050565b60006020828403121561200c5761200b611cb6565b5b600061201a84828501611fe1565b91505092915050565b60008115159050919050565b61203881612023565b82525050565b6000602082019050612053600083018461202f565b92915050565b6000819050919050565b61206c81612059565b811461207757600080fd5b50565b60008135905061208981612063565b92915050565b6000602082840312156120a5576120a4611cb6565b5b60006120b38482850161207a565b91505092915050565b6120c581612059565b82525050565b60006020820190506120e060008301846120bc565b92915050565b600081519050919050565b600082825260208201905092915050565b6000819050602082019050919050565b600061211e8383611d4f565b60208301905092915050565b6000602082019050919050565b6000612142826120e6565b61214c81856120f1565b935061215783612102565b8060005b8381101561218857815161216f8882612112565b975061217a8361212a565b92505060018101905061215b565b5085935050505092915050565b600060208201905081810360008301526121af8184612137565b905092915050565b6121c081611d7e565b81146121cb57600080fd5b50565b6000813590506121dd816121b7565b92915050565b600080604083850312156121fa576121f9611cb6565b5b60006122088582860161207a565b9250506020612219858286016121ce565b9150509250929050565b60006020828403121561223957612238611cb6565b5b6000612247848285016121ce565b91505092915050565b6000806040838503121561226757612266611cb6565b5b6000612275858286016121ce565b925050602061228685828601611ce1565b9150509250929050565b61229981611cc0565b82525050565b60006020820190506122b46000830184612290565b92915050565b600080604083850312156122d1576122d0611cb6565b5b60006122df85828601611ce1565b92505060206122f085828601611ce1565b9150509250929050565b6000819050919050565b600061231f61231a61231584611d5e565b6122fa565b611d5e565b9050919050565b600061233182612304565b9050919050565b600061234382612326565b9050919050565b61235381612338565b82525050565b600060208201905061236e600083018461234a565b92915050565b600061237f82612326565b9050919050565b61238f81612374565b82525050565b60006020820190506123aa6000830184612386565b92915050565b6000610100830160008301516123c96000860182611d4f565b5060208301516123dc6020860182611d90565b5060408301516123ef6040860182611d90565b5060608301516124026060860182611d4f565b5060808301516124156080860182611d4f565b5060a083015161242860a0860182611d4f565b5060c083015184820360c08601526124408282611df6565b91505060e083015184820360e086015261245a8282611df6565b9150508091505092915050565b6000602082019050818103600083015261248181846123b0565b905092915050565b600080fd5b600080fd5b7f4e487b7100000000000000000000000000000000000000000000000000000000600052604160045260246000fd5b6124cb82611de5565b810181811067ffffffffffffffff821117156124ea576124e9612493565b5b80604052505050565b60006124fd611cac565b905061250982826124c2565b919050565b600067ffffffffffffffff82111561252957612528612493565b5b61253282611de5565b9050602081019050919050565b82818337600083830152505050565b600061256161255c8461250e565b6124f3565b90508281526020810184848401111561257d5761257c61248e565b5b61258884828561253f565b509392505050565b600082601f8301126125a5576125a4612489565b5b81356125b584826020860161254e565b91505092915050565b600080604083850312156125d5576125d4611cb6565b5b60006125e385828601611ce1565b925050602083013567ffffffffffffffff81111561260457612603611cbb565b5b61261085828601612590565b9150509250929050565b61262381611d7e565b82525050565b600082825260208201905092915050565b600061264582611d9f565b61264f8185612629565b935061265f818560208601611dbb565b61266881611de5565b840191505092915050565b600061010082019050612689600083018b612290565b612696602083018a61261a565b6126a3604083018961261a565b6126b06060830188612290565b6126bd6080830187612290565b6126ca60a0830186612290565b81810360c08301526126dc818561263a565b905081810360e08301526126f0818461263a565b90509998505050505050505050565b7f4e487b7100000000000000000000000000000000000000000000000000000000600052601160045260246000fd5b600061273982611cc0565b915061274483611cc0565b925082820390508181111561275c5761275b6126ff565b5b92915050565b7f4e487b7100000000000000000000000000000000000000000000000000000000600052602260045260246000fd5b600060028204905060018216806127a957607f821691505b6020821081036127bc576127bb612762565b5b50919050565b7f4e487b7100000000000000000000000000000000000000000000000000000000600052603260045260246000fd5b60006127fc82611cc0565b91507fffffffffffffffffffffffffffffffffffffffffffffffffffffffffffffffff820361282e5761282d6126ff565b5b600182019050919050565b600081519050612848816121b7565b92915050565b60006020828403121561286457612863611cb6565b5b600061287284828501612839565b91505092915050565b600080fd5b600080fd5b60008151905061289481611cca565b92915050565b60006128ad6128a88461250e565b6124f3565b9050828152602081018484840111156128c9576128c861248e565b5b6128d4848285611dbb565b509392505050565b600082601f8301126128f1576128f0612489565b5b815161290184826020860161289a565b91505092915050565b600067ffffffffffffffff82111561292557612924612493565b5b602082029050602081019050919050565b600080fd5b600061294e6129498461290a565b6124f3565b9050808382526020820190506020840283018581111561297157612970612936565b5b835b818110156129b857805167ffffffffffffffff81111561299657612995612489565b5b8086016129a389826128dc565b85526020850194505050602081019050612973565b5050509392505050565b600082601f8301126129d7576129d6612489565b5b81516129e784826020860161293b565b91505092915050565b6129f981612023565b8114612a0457600080fd5b50565b600081519050612a16816129f0565b92915050565b60006101c08284031215612a3357612a3261287b565b5b612a3e6101c06124f3565b90506000612a4e84828501612885565b6000830152506020612a6284828501612839565b602083015250604082015167ffffffffffffffff811115612a8657612a85612880565b5b612a92848285016128dc565b604083015250606082015167ffffffffffffffff811115612ab657612ab5612880565b5b612ac2848285016128dc565b606083015250608082015167ffffffffffffffff811115612ae657612ae5612880565b5b612af2848285016128dc565b60808301525060a0612b0684828501612885565b60a08301525060c0612b1a84828501612885565b60c08301525060e0612b2e84828501612885565b60e083015250610100612b4384828501612885565b6101008301525061012082015167ffffffffffffffff811115612b6957612b68612880565b5b612b75848285016129c2565b6101208301525061014082015167ffffffffffffffff811115612b9b57612b9a612880565b5b612ba7848285016128dc565b61014083015250610160612bbd84828501612a07565b61016083015250610180612bd384828501612a07565b610180830152506101a0612be984828501612a07565b6101a08301525092915050565b600060208284031215612c0c57612c0b611cb6565b5b600082015167ffffffffffffffff811115612c2a57612c29611cbb565b5b612c3684828501612a1c565b91505092915050565b600081905092915050565b7f4e6f6e6500000000000000000000000000000000000000000000000000000000600082015250565b6000612c80600483612c3f565b9150612c8b82612c4a565b600482019050919050565b6000612ca182612c73565b9150819050919050565b6000612cb682611d9f565b612cc08185612c3f565b9350612cd0818560208601611dbb565b80840191505092915050565b6000612ce88284612cab565b915081905092915050565b600060a082019050612d08600083018861261a565b8181036020830152612d1a818761263a565b90508181036040830152612d2e818661263a565b9050612d3d6060830185612290565b8181036080830152612d4f818461263a565b90509695505050505050565b600060208284031215612d7157612d70611cb6565b5b600082015167ffffffffffffffff811115612d8f57612d8e611cbb565b5b612d9b848285016128dc565b91505092915050565b6000604082019050612db96000830185612290565b8181036020830152612dcb818461263a565b90509392505050565b600081519050919050565b600081905092915050565b6000612df582612dd4565b612dff8185612ddf565b9350612e0f818560208601611dbb565b80840191505092915050565b6000612e278284612dea565b915081905092915050565b60008190508160005260206000209050919050565b60006020601f8301049050919050565b600082821b905092915050565b600060088302612e947fffffffffffffffffffffffffffffffffffffffffffffffffffffffffffffffff82612e57565b612e9e8683612e57565b95508019841693508086168417925050509392505050565b6000612ed1612ecc612ec784611cc0565b6122fa565b611cc0565b9050919050565b6000819050919050565b612eeb83612eb6565b612eff612ef782612ed8565b848454612e64565b825550505050565b600090565b612f14612f07565b612f1f818484612ee2565b505050565b5b81811015612f4357612f38600082612f0c565b600181019050612f25565b5050565b601f821115612f8857612f5981612e32565b612f6284612e47565b81016020851015612f71578190505b612f85612f7d85612e47565b830182612f24565b50505b505050565b600082821c905092915050565b6000612fab60001984600802612f8d565b1980831691505092915050565b6000612fc48383612f9a565b9150826002028217905092915050565b612fdd82611d9f565b67ffffffffffffffff811115612ff657612ff5612493565b5b6130008254612791565b61300b828285612f47565b600060209050601f83116001811461303e576000841561302c578287015190505b6130368582612fb8565b86555061309e565b601f19841661304c86612e32565b60005b828110156130745784890151825560018201915060208501945060208101905061304f565b86831015613091578489015161308d601f891682612f9a565b8355505b6001600288020188555050505b505050505050565b60006060820190506130bb6000830186612290565b81810360208301526130cd818561263a565b905081810360408301526130e1818461263a565b9050949350505050565b60006020828403121561310157613100611cb6565b5b600061310f84828501612a07565b91505092915050565b600060408201905061312d600083018561261a565b61313a60208301846120bc565b939250505056fea2646970667358221220d6c1d7dda44128375699ac9d2b403e780d6292b57e9a14e5fd23f0df82b8720b64736f6c63430008140033",
  "linkReferences": {},
  "deployedLinkReferences": {}
}